{"abi":[{"type":"constructor","inputs":[],"stateMutability":"nonpayable"},{"type":"function","name":"MAX_FEE","inputs":[],"outputs":[{"name":"","type":"uint16","internalType":"uint16"}],"stateMutability":"view"},{"type":"function","name":"acceptOwnership","inputs":[],"outputs":[],"stateMutability":"nonpayable"},{"type":"function","name":"fee","inputs":[],"outputs":[{"name":"","type":"uint16","internalType":"uint16"}],"stateMutability":"view"},{"type":"function","name":"feeCollector","inputs":[],"outputs":[{"name":"","type":"address","internalType":"address"}],"stateMutability":"view"},{"type":"function","name":"getPoolAdapter","inputs":[{"name":"pool","type":"address","internalType":"address"}],"outputs":[{"name":"","type":"address","internalType":"contract IPoolAdapter"}],"stateMutability":"view"},{"type":"function","name":"getStateFingerprintComputer","inputs":[{"name":"asset","type":"address","internalType":"address"}],"outputs":[{"name":"","type":"address","internalType":"contract IStateFingerpringComputer"}],"stateMutability":"view"},{"type":"function","name":"initialize","inputs":[{"name":"_owner","type":"address","internalType":"address"},{"name":"_fee","type":"uint16","internalType":"uint16"},{"name":"_feeCollector","type":"address","internalType":"address"}],"outputs":[],"stateMutability":"nonpayable"},{"type":"function","name":"loanMetadataUri","inputs":[{"name":"loanContract","type":"address","internalType":"address"}],"outputs":[{"name":"uri","type":"string","internalType":"string"}],"stateMutability":"view"},{"type":"function","name":"owner","inputs":[],"outputs":[{"name":"","type":"address","internalType":"address"}],"stateMutability":"view"},{"type":"function","name":"pendingOwner","inputs":[],"outputs":[{"name":"","type":"address","internalType":"address"}],"stateMutability":"view"},{"type":"function","name":"registerPoolAdapter","inputs":[{"name":"pool","type":"address","internalType":"address"},{"name":"adapter","type":"address","internalType":"address"}],"outputs":[],"stateMutability":"nonpayable"},{"type":"function","name":"registerStateFingerprintComputer","inputs":[{"name":"asset","type":"address","internalType":"address"},{"name":"computer","type":"address","internalType":"address"}],"outputs":[],"stateMutability":"nonpayable"},{"type":"function","name":"renounceOwnership","inputs":[],"outputs":[],"stateMutability":"nonpayable"},{"type":"function","name":"setDefaultLOANMetadataUri","inputs":[{"name":"metadataUri","type":"string","internalType":"string"}],"outputs":[],"stateMutability":"nonpayable"},{"type":"function","name":"setFee","inputs":[{"name":"_fee","type":"uint16","internalType":"uint16"}],"outputs":[],"stateMutability":"nonpayable"},{"type":"function","name":"setFeeCollector","inputs":[{"name":"_feeCollector","type":"address","internalType":"address"}],"outputs":[],"stateMutability":"nonpayable"},{"type":"function","name":"setLOANMetadataUri","inputs":[{"name":"loanContract","type":"address","internalType":"address"},{"name":"metadataUri","type":"string","internalType":"string"}],"outputs":[],"stateMutability":"nonpayable"},{"type":"function","name":"transferOwnership","inputs":[{"name":"newOwner","type":"address","internalType":"address"}],"outputs":[],"stateMutability":"nonpayable"},{"type":"event","name":"DefaultLOANMetadataUriUpdated","inputs":[{"name":"newUri","type":"string","indexed":false,"internalType":"string"}],"anonymous":false},{"type":"event","name":"FeeCollectorUpdated","inputs":[{"name":"oldFeeCollector","type":"address","indexed":false,"internalType":"address"},{"name":"newFeeCollector","type":"address","indexed":false,"internalType":"address"}],"anonymous":false},{"type":"event","name":"FeeUpdated","inputs":[{"name":"oldFee","type":"uint16","indexed":false,"internalType":"uint16"},{"name":"newFee","type":"uint16","indexed":false,"internalType":"uint16"}],"anonymous":false},{"type":"event","name":"Initialized","inputs":[{"name":"version","type":"uint8","indexed":false,"internalType":"uint8"}],"anonymous":false},{"type":"event","name":"LOANMetadataUriUpdated","inputs":[{"name":"loanContract","type":"address","indexed":true,"internalType":"address"},{"name":"newUri","type":"string","indexed":false,"internalType":"string"}],"anonymous":false},{"type":"event","name":"OwnershipTransferStarted","inputs":[{"name":"previousOwner","type":"address","indexed":true,"internalType":"address"},{"name":"newOwner","type":"address","indexed":true,"internalType":"address"}],"anonymous":false},{"type":"event","name":"OwnershipTransferred","inputs":[{"name":"previousOwner","type":"address","indexed":true,"internalType":"address"},{"name":"newOwner","type":"address","indexed":true,"internalType":"address"}],"anonymous":false},{"type":"error","name":"InvalidComputerContract","inputs":[{"name":"computer","type":"address","internalType":"address"},{"name":"asset","type":"address","internalType":"address"}]},{"type":"error","name":"InvalidFeeValue","inputs":[{"name":"fee","type":"uint256","internalType":"uint256"},{"name":"limit","type":"uint256","internalType":"uint256"}]},{"type":"error","name":"ZeroFeeCollector","inputs":[]},{"type":"error","name":"ZeroLoanContract","inputs":[]}],"bytecode":{"object":"0x608060405234801561001057600080fd5b50610019610028565b61002360006100e7565b610160565b600054610100900460ff16156100945760405162461bcd60e51b815260206004820152602760248201527f496e697469616c697a61626c653a20636f6e747261637420697320696e697469604482015266616c697a696e6760c81b606482015260840160405180910390fd5b60005460ff908116146100e5576000805460ff191660ff9081179091556040519081527f7f26b83ff96e1f2b6a682f133852f6798a09c465da95921460cefb38474024989060200160405180910390a15b565b606580546001600160a01b031916905561010b8161010e602090811b6108eb17901c565b50565b603380546001600160a01b038381166001600160a01b0319831681179093556040519116919082907f8be0079c531659141344cd1fd0a4f28419497f9722a3daafe3b4186f6b6457e090600090a35050565b610ec38061016f6000396000f3fe608060405234801561001057600080fd5b50600436106101165760003560e01c8063a42dce80116100a2578063c4743ae011610071578063c4743ae01461026b578063cbf35d881461027e578063ddca3f4314610291578063e30c39781461029f578063f2fde38b146102b057600080fd5b8063a42dce80146101f7578063b20912311461020a578063bc063e1a14610236578063c415b95c1461025257600080fd5b8063715018a6116100e9578063715018a6146101b057806379ba5097146101b85780638da5cb5b146101c05780638e005553146101d1578063935bf0d7146101e457600080fd5b8063233557501461011b5780632df927ac146101445780634bbcf8de14610188578063708c0db91461019d575b600080fd5b61012e610129366004610ae1565b6102c3565b60405161013b9190610b03565b60405180910390f35b610170610152366004610ae1565b6001600160a01b039081166000908152609960205260409020541690565b6040516001600160a01b03909116815260200161013b565b61019b610196366004610bf4565b61042e565b005b61019b6101ab366004610c54565b6104c5565b61019b61063f565b61019b610653565b6033546001600160a01b0316610170565b61019b6101df366004610c97565b6106cd565b61019b6101f2366004610cb2565b6106de565b61019b610205366004610ae1565b6107bc565b610170610218366004610ae1565b6001600160a01b039081166000908152609a60205260409020541690565b61023f6103e881565b60405161ffff909116815260200161013b565b609754610170906201000090046001600160a01b031681565b61019b610279366004610ce5565b6107cd565b61019b61028c366004610cb2565b610844565b60975461023f9061ffff1681565b6065546001600160a01b0316610170565b61019b6102be366004610ae1565b61087a565b6001600160a01b03811660009081526098602052604090208054606091906102ea90610d22565b80601f016020809104026020016040519081016040528092919081815260200182805461031690610d22565b80156103635780601f1061033857610100808354040283529160200191610363565b820191906000526020600020905b81548152906001019060200180831161034657829003601f168201915b505050505090508051600003610429576000805260986020527fddaeee8e61001dbcfaf4f92c6943552c392a86665d734d3c1905d7b3c23b1b1e80546103a890610d22565b80601f01602080910402602001604051908101604052809291908181526020018280546103d490610d22565b80156104215780601f106103f657610100808354040283529160200191610421565b820191906000526020600020905b81548152906001019060200180831161040457829003601f168201915b505050505090505b919050565b61043661093d565b6001600160a01b03821661045d5760405163a9fcf0f560e01b815260040160405180910390fd5b6001600160a01b038216600090815260986020526040902061047f8282610dab565b50816001600160a01b03167f6004b71123e07b97df793497325c4438343da4eeb06cfe39475aa69d93476527826040516104b99190610b03565b60405180910390a25050565b600054610100900460ff16158080156104e55750600054600160ff909116105b806104ff5750303b1580156104ff575060005460ff166001145b6105675760405162461bcd60e51b815260206004820152602e60248201527f496e697469616c697a61626c653a20636f6e747261637420697320616c72656160448201526d191e481a5b9a5d1a585b1a5e995960921b60648201526084015b60405180910390fd5b6000805460ff19166001179055801561058a576000805461ff0019166101001790555b6001600160a01b0384166105d85760405162461bcd60e51b81526020600482015260156024820152744f776e6572206973207a65726f206164647265737360581b604482015260640161055e565b6105e184610997565b6105ea826109b0565b6105f383610a45565b8015610639576000805461ff0019169055604051600181527f7f26b83ff96e1f2b6a682f133852f6798a09c465da95921460cefb38474024989060200160405180910390a15b50505050565b61064761093d565b6106516000610997565b565b60655433906001600160a01b031681146106c15760405162461bcd60e51b815260206004820152602960248201527f4f776e61626c6532537465703a2063616c6c6572206973206e6f7420746865206044820152683732bb9037bbb732b960b91b606482015260840161055e565b6106ca81610997565b50565b6106d561093d565b6106ca81610a45565b6106e661093d565b6001600160a01b0381161561078e576040516261f76560e41b81526001600160a01b03838116600483015282169063061f765090602401602060405180830381865afa15801561073a573d6000803e3d6000fd5b505050506040513d601f19601f8201168201806040525081019061075e9190610e6b565b61078e5760405163e12aeae760e01b81526001600160a01b0380831660048301528316602482015260440161055e565b6001600160a01b03918216600090815260996020526040902080546001600160a01b03191691909216179055565b6107c461093d565b6106ca816109b0565b6107d561093d565b6000805260986020527fddaeee8e61001dbcfaf4f92c6943552c392a86665d734d3c1905d7b3c23b1b1e6108098282610dab565b507fe358eb330ebc40c9c9375742912f9c5a8ae1db2e9990a15039c889ba971e128b816040516108399190610b03565b60405180910390a150565b61084c61093d565b6001600160a01b039182166000908152609a6020526040902080546001600160a01b03191691909216179055565b61088261093d565b606580546001600160a01b0383166001600160a01b031990911681179091556108b36033546001600160a01b031690565b6001600160a01b03167f38d16b8cac22d99fc7c124b9cd0de2d3fa1faef420bfe791d8c362d765e2270060405160405180910390a350565b603380546001600160a01b038381166001600160a01b0319831681179093556040519116919082907f8be0079c531659141344cd1fd0a4f28419497f9722a3daafe3b4186f6b6457e090600090a35050565b6033546001600160a01b031633146106515760405162461bcd60e51b815260206004820181905260248201527f4f776e61626c653a2063616c6c6572206973206e6f7420746865206f776e6572604482015260640161055e565b606580546001600160a01b03191690556106ca816108eb565b6001600160a01b0381166109d757604051635fb3e86760e11b815260040160405180910390fd5b609780546001600160a01b038381166201000081810262010000600160b01b031985161790945560408051949093049091168084526020840191909152917f5d16ad41baeb009cd23eb8f6c7cde5c2e0cd5acf4a33926ab488875c37c37f3891015b60405180910390a15050565b6103e861ffff82161115610a7a5760405163f6696bd560e01b815261ffff821660048201526103e8602482015260440161055e565b6097805461ffff83811661ffff1983168117909355604080519190921680825260208201939093527f2e7c4279000925b8ff0bca0e7109cbc47fc6f6c4edfb831ffe7466cf0af07fa09101610a39565b80356001600160a01b038116811461042957600080fd5b600060208284031215610af357600080fd5b610afc82610aca565b9392505050565b600060208083528351808285015260005b81811015610b3057858101830151858201604001528201610b14565b506000604082860101526040601f19601f8301168501019250505092915050565b634e487b7160e01b600052604160045260246000fd5b600082601f830112610b7857600080fd5b813567ffffffffffffffff80821115610b9357610b93610b51565b604051601f8301601f19908116603f01168101908282118183101715610bbb57610bbb610b51565b81604052838152866020858801011115610bd457600080fd5b836020870160208301376000602085830101528094505050505092915050565b60008060408385031215610c0757600080fd5b610c1083610aca565b9150602083013567ffffffffffffffff811115610c2c57600080fd5b610c3885828601610b67565b9150509250929050565b803561ffff8116811461042957600080fd5b600080600060608486031215610c6957600080fd5b610c7284610aca565b9250610c8060208501610c42565b9150610c8e60408501610aca565b90509250925092565b600060208284031215610ca957600080fd5b610afc82610c42565b60008060408385031215610cc557600080fd5b610cce83610aca565b9150610cdc60208401610aca565b90509250929050565b600060208284031215610cf757600080fd5b813567ffffffffffffffff811115610d0e57600080fd5b610d1a84828501610b67565b949350505050565b600181811c90821680610d3657607f821691505b602082108103610d5657634e487b7160e01b600052602260045260246000fd5b50919050565b601f821115610da657600081815260208120601f850160051c81016020861015610d835750805b601f850160051c820191505b81811015610da257828155600101610d8f565b5050505b505050565b815167ffffffffffffffff811115610dc557610dc5610b51565b610dd981610dd38454610d22565b84610d5c565b602080601f831160018114610e0e5760008415610df65750858301515b600019600386901b1c1916600185901b178555610da2565b600085815260208120601f198616915b82811015610e3d57888601518255948401946001909101908401610e1e565b5085821015610e5b5787850151600019600388901b60f8161c191681555b5050505050600190811b01905550565b600060208284031215610e7d57600080fd5b81518015158114610afc57600080fdfea264697066735822122050013480b7b3f1ae431e986d3a9984428851eaf65c04a2b9cba92ca8ac167a2164736f6c63430008100033","linkReferences":{}},"methodIdentifiers":{"MAX_FEE()":"bc063e1a","acceptOwnership()":"79ba5097","fee()":"ddca3f43","feeCollector()":"c415b95c","getPoolAdapter(address)":"b2091231","getStateFingerprintComputer(address)":"2df927ac","initialize(address,uint16,address)":"708c0db9","loanMetadataUri(address)":"23355750","owner()":"8da5cb5b","pendingOwner()":"e30c3978","registerPoolAdapter(address,address)":"cbf35d88","registerStateFingerprintComputer(address,address)":"935bf0d7","renounceOwnership()":"715018a6","setDefaultLOANMetadataUri(string)":"c4743ae0","setFee(uint16)":"8e005553","setFeeCollector(address)":"a42dce80","setLOANMetadataUri(address,string)":"4bbcf8de","transferOwnership(address)":"f2fde38b"},"id":80}