{"abi":[{"type":"constructor","inputs":[{"name":"_hub","type":"address","internalType":"address"}],"stateMutability":"nonpayable"},{"type":"function","name":"approve","inputs":[{"name":"to","type":"address","internalType":"address"},{"name":"tokenId","type":"uint256","internalType":"uint256"}],"outputs":[],"stateMutability":"nonpayable"},{"type":"function","name":"balanceOf","inputs":[{"name":"owner","type":"address","internalType":"address"}],"outputs":[{"name":"","type":"uint256","internalType":"uint256"}],"stateMutability":"view"},{"type":"function","name":"burn","inputs":[{"name":"loanId","type":"uint256","internalType":"uint256"}],"outputs":[],"stateMutability":"nonpayable"},{"type":"function","name":"getApproved","inputs":[{"name":"tokenId","type":"uint256","internalType":"uint256"}],"outputs":[{"name":"","type":"address","internalType":"address"}],"stateMutability":"view"},{"type":"function","name":"getStateFingerprint","inputs":[{"name":"tokenId","type":"uint256","internalType":"uint256"}],"outputs":[{"name":"","type":"bytes32","internalType":"bytes32"}],"stateMutability":"view"},{"type":"function","name":"hub","inputs":[],"outputs":[{"name":"","type":"address","internalType":"contract PWNHub"}],"stateMutability":"view"},{"type":"function","name":"isApprovedForAll","inputs":[{"name":"owner","type":"address","internalType":"address"},{"name":"operator","type":"address","internalType":"address"}],"outputs":[{"name":"","type":"bool","internalType":"bool"}],"stateMutability":"view"},{"type":"function","name":"lastLoanId","inputs":[],"outputs":[{"name":"","type":"uint256","internalType":"uint256"}],"stateMutability":"view"},{"type":"function","name":"loanContract","inputs":[{"name":"","type":"uint256","internalType":"uint256"}],"outputs":[{"name":"","type":"address","internalType":"address"}],"stateMutability":"view"},{"type":"function","name":"mint","inputs":[{"name":"owner","type":"address","internalType":"address"}],"outputs":[{"name":"loanId","type":"uint256","internalType":"uint256"}],"stateMutability":"nonpayable"},{"type":"function","name":"name","inputs":[],"outputs":[{"name":"","type":"string","internalType":"string"}],"stateMutability":"view"},{"type":"function","name":"ownerOf","inputs":[{"name":"tokenId","type":"uint256","internalType":"uint256"}],"outputs":[{"name":"","type":"address","internalType":"address"}],"stateMutability":"view"},{"type":"function","name":"safeTransferFrom","inputs":[{"name":"from","type":"address","internalType":"address"},{"name":"to","type":"address","internalType":"address"},{"name":"tokenId","type":"uint256","internalType":"uint256"}],"outputs":[],"stateMutability":"nonpayable"},{"type":"function","name":"safeTransferFrom","inputs":[{"name":"from","type":"address","internalType":"address"},{"name":"to","type":"address","internalType":"address"},{"name":"tokenId","type":"uint256","internalType":"uint256"},{"name":"data","type":"bytes","internalType":"bytes"}],"outputs":[],"stateMutability":"nonpayable"},{"type":"function","name":"setApprovalForAll","inputs":[{"name":"operator","type":"address","internalType":"address"},{"name":"approved","type":"bool","internalType":"bool"}],"outputs":[],"stateMutability":"nonpayable"},{"type":"function","name":"supportsInterface","inputs":[{"name":"interfaceId","type":"bytes4","internalType":"bytes4"}],"outputs":[{"name":"","type":"bool","internalType":"bool"}],"stateMutability":"view"},{"type":"function","name":"symbol","inputs":[],"outputs":[{"name":"","type":"string","internalType":"string"}],"stateMutability":"view"},{"type":"function","name":"tokenURI","inputs":[{"name":"tokenId","type":"uint256","internalType":"uint256"}],"outputs":[{"name":"","type":"string","internalType":"string"}],"stateMutability":"view"},{"type":"function","name":"transferFrom","inputs":[{"name":"from","type":"address","internalType":"address"},{"name":"to","type":"address","internalType":"address"},{"name":"tokenId","type":"uint256","internalType":"uint256"}],"outputs":[],"stateMutability":"nonpayable"},{"type":"event","name":"Approval","inputs":[{"name":"owner","type":"address","indexed":true,"internalType":"address"},{"name":"approved","type":"address","indexed":true,"internalType":"address"},{"name":"tokenId","type":"uint256","indexed":true,"internalType":"uint256"}],"anonymous":false},{"type":"event","name":"ApprovalForAll","inputs":[{"name":"owner","type":"address","indexed":true,"internalType":"address"},{"name":"operator","type":"address","indexed":true,"internalType":"address"},{"name":"approved","type":"bool","indexed":false,"internalType":"bool"}],"anonymous":false},{"type":"event","name":"LOANBurned","inputs":[{"name":"loanId","type":"uint256","indexed":true,"internalType":"uint256"}],"anonymous":false},{"type":"event","name":"LOANMinted","inputs":[{"name":"loanId","type":"uint256","indexed":true,"internalType":"uint256"},{"name":"loanContract","type":"address","indexed":true,"internalType":"address"},{"name":"owner","type":"address","indexed":true,"internalType":"address"}],"anonymous":false},{"type":"event","name":"Transfer","inputs":[{"name":"from","type":"address","indexed":true,"internalType":"address"},{"name":"to","type":"address","indexed":true,"internalType":"address"},{"name":"tokenId","type":"uint256","indexed":true,"internalType":"uint256"}],"anonymous":false},{"type":"error","name":"CallerMissingHubTag","inputs":[{"name":"tag","type":"bytes32","internalType":"bytes32"}]},{"type":"error","name":"InvalidLoanContractCaller","inputs":[]}],"bytecode":{"object":"0x60a06040523480156200001157600080fd5b5060405162001893380380620018938339810160408190526200003491620000a7565b60405180604001604052806008815260200167282ba7102627a0a760c11b815250604051806040016040528060048152602001632627a0a760e11b81525081600090816200008391906200017e565b5060016200009282826200017e565b5050506001600160a01b03166080526200024a565b600060208284031215620000ba57600080fd5b81516001600160a01b0381168114620000d257600080fd5b9392505050565b634e487b7160e01b600052604160045260246000fd5b600181811c908216806200010457607f821691505b6020821081036200012557634e487b7160e01b600052602260045260246000fd5b50919050565b601f8211156200017957600081815260208120601f850160051c81016020861015620001545750805b601f850160051c820191505b81811015620001755782815560010162000160565b5050505b505050565b81516001600160401b038111156200019a576200019a620000d9565b620001b281620001ab8454620000ef565b846200012b565b602080601f831160018114620001ea5760008415620001d15750858301515b600019600386901b1c1916600185901b17855562000175565b600085815260208120601f198616915b828110156200021b57888601518255948401946001909101908401620001fa565b50858210156200023a5787850151600019600388901b60f8161c191681555b5050505050600190811b01905550565b6080516116266200026d600039600081816101bb015261067f01526116266000f3fe608060405234801561001057600080fd5b50600436106101215760003560e01c806368be92b4116100ad578063a22cb46511610071578063a22cb46514610284578063b88d4fde14610297578063c87b56dd146102aa578063e985e9c5146102bd578063f5112315146102f957600080fd5b806368be92b4146102165780636a6278421461022d57806370a082311461024057806395d89b4114610253578063a00d21fc1461025b57600080fd5b806323b872dd116100f457806323b872dd146101a3578063365a86fc146101b657806342842e0e146101dd57806342966c68146101f05780636352211e1461020357600080fd5b806301ffc9a71461012657806306fdde031461014e578063081812fc14610163578063095ea7b31461018e575b600080fd5b6101396101343660046110dc565b61030c565b60405190151581526020015b60405180910390f35b610156610338565b6040516101459190611149565b61017661017136600461115c565b6103ca565b6040516001600160a01b039091168152602001610145565b6101a161019c366004611191565b6103f1565b005b6101a16101b13660046111bb565b61050b565b6101767f000000000000000000000000000000000000000000000000000000000000000081565b6101a16101eb3660046111bb565b61053c565b6101a16101fe36600461115c565b610557565b61017661021136600461115c565b6105e1565b61021f60065481565b604051908152602001610145565b61021f61023b3660046111f7565b610641565b61021f61024e3660046111f7565b6107ac565b610156610832565b61017661026936600461115c565b6007602052600090815260409020546001600160a01b031681565b6101a1610292366004611220565b610841565b6101a16102a53660046112c6565b610850565b6101566102b836600461115c565b610888565b6101396102cb366004611371565b6001600160a01b03918216600090815260056020908152604080832093909416825291909152205460ff1690565b61021f61030736600461115c565b61090b565b6000610317826109a1565b8061033257506001600160e01b0319821663f511231560e01b145b92915050565b606060008054610347906113a4565b80601f0160208091040260200160405190810160405280929190818152602001828054610373906113a4565b80156103c05780601f10610395576101008083540402835291602001916103c0565b820191906000526020600020905b8154815290600101906020018083116103a357829003601f168201915b5050505050905090565b60006103d5826109f1565b506000908152600460205260409020546001600160a01b031690565b60006103fc826105e1565b9050806001600160a01b0316836001600160a01b03160361046e5760405162461bcd60e51b815260206004820152602160248201527f4552433732313a20617070726f76616c20746f2063757272656e74206f776e656044820152603960f91b60648201526084015b60405180910390fd5b336001600160a01b038216148061048a575061048a81336102cb565b6104fc5760405162461bcd60e51b815260206004820152603d60248201527f4552433732313a20617070726f76652063616c6c6572206973206e6f7420746f60448201527f6b656e206f776e6572206f7220617070726f76656420666f7220616c6c0000006064820152608401610465565b6105068383610a53565b505050565b6105153382610ac1565b6105315760405162461bcd60e51b8152600401610465906113de565b610506838383610b40565b61050683838360405180602001604052806000815250610850565b6000818152600760205260409020546001600160a01b0316331461058e576040516374768c4960e11b815260040160405180910390fd5b600081815260076020526040902080546001600160a01b03191690556105b381610ca4565b60405181907f56f7da88d3aa2a8ad74b71a5b449a66a643193815eace8bbd6b089d4bc18294b90600090a250565b6000818152600260205260408120546001600160a01b0316806103325760405162461bcd60e51b8152602060048201526018602482015277115490cdcc8c4e881a5b9d985b1a59081d1bdad95b88125160421b6044820152606401610465565b60405163680cabbd60e11b81523360048201527f9e56ea094d7a53440eef11fa42b63159fbf703b4ee579494a6ae85afc560359460248201526000907f00000000000000000000000000000000000000000000000000000000000000006001600160a01b03169063d019577a90604401602060405180830381865afa1580156106ce573d6000803e3d6000fd5b505050506040513d601f19601f820116820180604052508101906106f2919061142b565b6107315760405163f8932b2d60e01b81527f9e56ea094d7a53440eef11fa42b63159fbf703b4ee579494a6ae85afc56035946004820152602401610465565b60066000815461074090611448565b9182905550600081815260076020526040902080546001600160a01b03191633179055905061076f8282610d39565b6040516001600160a01b03831690339083907f2ca529bede83c064afd9331357a1ce320271c9c7ceda28ac31472d76f7aff53090600090a4919050565b60006001600160a01b0382166108165760405162461bcd60e51b815260206004820152602960248201527f4552433732313a2061646472657373207a65726f206973206e6f7420612076616044820152683634b21037bbb732b960b91b6064820152608401610465565b506001600160a01b031660009081526003602052604090205490565b606060018054610347906113a4565b61084c338383610ec4565b5050565b61085a3383610ac1565b6108765760405162461bcd60e51b8152600401610465906113de565b61088284848484610f92565b50505050565b6060610893826109f1565b60008281526007602052604080822054815163111d8a1560e01b815291516001600160a01b039091169263111d8a1592600480820193918290030181865afa1580156108e3573d6000803e3d6000fd5b505050506040513d6000823e601f3d908101601f19168201604052610332919081019061146f565b6000818152600760205260408120546001600160a01b0316806109315750600092915050565b60405163f511231560e01b8152600481018490526001600160a01b0382169063f511231590602401602060405180830381865afa158015610976573d6000803e3d6000fd5b505050506040513d601f19601f8201168201806040525081019061099a91906114e6565b9392505050565b60006001600160e01b031982166380ac58cd60e01b14806109d257506001600160e01b03198216635b5e139f60e01b145b8061033257506301ffc9a760e01b6001600160e01b0319831614610332565b6000818152600260205260409020546001600160a01b0316610a505760405162461bcd60e51b8152602060048201526018602482015277115490cdcc8c4e881a5b9d985b1a59081d1bdad95b88125160421b6044820152606401610465565b50565b600081815260046020526040902080546001600160a01b0319166001600160a01b0384169081179091558190610a88826105e1565b6001600160a01b03167f8c5be1e5ebec7d5bd14f71427d1e84f3dd0314c0f7b2291e5b200ac8c7c3b92560405160405180910390a45050565b600080610acd836105e1565b9050806001600160a01b0316846001600160a01b03161480610b1457506001600160a01b0380821660009081526005602090815260408083209388168352929052205460ff165b80610b385750836001600160a01b0316610b2d846103ca565b6001600160a01b0316145b949350505050565b826001600160a01b0316610b53826105e1565b6001600160a01b031614610b795760405162461bcd60e51b8152600401610465906114ff565b6001600160a01b038216610bdb5760405162461bcd60e51b8152602060048201526024808201527f4552433732313a207472616e7366657220746f20746865207a65726f206164646044820152637265737360e01b6064820152608401610465565b826001600160a01b0316610bee826105e1565b6001600160a01b031614610c145760405162461bcd60e51b8152600401610465906114ff565b600081815260046020908152604080832080546001600160a01b03199081169091556001600160a01b0387811680865260038552838620805460001901905590871680865283862080546001019055868652600290945282852080549092168417909155905184937fddf252ad1be2c89b69c2b068fc378daa952ba7f163c4a11628f55a4df523b3ef91a4505050565b6000610caf826105e1565b9050610cba826105e1565b600083815260046020908152604080832080546001600160a01b03199081169091556001600160a01b0385168085526003845282852080546000190190558785526002909352818420805490911690555192935084927fddf252ad1be2c89b69c2b068fc378daa952ba7f163c4a11628f55a4df523b3ef908390a45050565b6001600160a01b038216610d8f5760405162461bcd60e51b815260206004820181905260248201527f4552433732313a206d696e7420746f20746865207a65726f20616464726573736044820152606401610465565b6000818152600260205260409020546001600160a01b031615610df45760405162461bcd60e51b815260206004820152601c60248201527f4552433732313a20746f6b656e20616c7265616479206d696e746564000000006044820152606401610465565b6000818152600260205260409020546001600160a01b031615610e595760405162461bcd60e51b815260206004820152601c60248201527f4552433732313a20746f6b656e20616c7265616479206d696e746564000000006044820152606401610465565b6001600160a01b038216600081815260036020908152604080832080546001019055848352600290915280822080546001600160a01b0319168417905551839291907fddf252ad1be2c89b69c2b068fc378daa952ba7f163c4a11628f55a4df523b3ef908290a45050565b816001600160a01b0316836001600160a01b031603610f255760405162461bcd60e51b815260206004820152601960248201527f4552433732313a20617070726f766520746f2063616c6c6572000000000000006044820152606401610465565b6001600160a01b03838116600081815260056020908152604080832094871680845294825291829020805460ff191686151590811790915591519182527f17307eab39ab6107e8899845ad3d59bd9653f200f220920489ca2b5937696c31910160405180910390a3505050565b610f9d848484610b40565b610fa984848484610fc5565b6108825760405162461bcd60e51b815260040161046590611544565b60006001600160a01b0384163b156110bb57604051630a85bd0160e11b81526001600160a01b0385169063150b7a0290611009903390899088908890600401611596565b6020604051808303816000875af1925050508015611044575060408051601f3d908101601f19168201909252611041918101906115d3565b60015b6110a1573d808015611072576040519150601f19603f3d011682016040523d82523d6000602084013e611077565b606091505b5080516000036110995760405162461bcd60e51b815260040161046590611544565b805181602001fd5b6001600160e01b031916630a85bd0160e11b149050610b38565b506001949350505050565b6001600160e01b031981168114610a5057600080fd5b6000602082840312156110ee57600080fd5b813561099a816110c6565b60005b838110156111145781810151838201526020016110fc565b50506000910152565b600081518084526111358160208601602086016110f9565b601f01601f19169290920160200192915050565b60208152600061099a602083018461111d565b60006020828403121561116e57600080fd5b5035919050565b80356001600160a01b038116811461118c57600080fd5b919050565b600080604083850312156111a457600080fd5b6111ad83611175565b946020939093013593505050565b6000806000606084860312156111d057600080fd5b6111d984611175565b92506111e760208501611175565b9150604084013590509250925092565b60006020828403121561120957600080fd5b61099a82611175565b8015158114610a5057600080fd5b6000806040838503121561123357600080fd5b61123c83611175565b9150602083013561124c81611212565b809150509250929050565b634e487b7160e01b600052604160045260246000fd5b604051601f8201601f1916810167ffffffffffffffff8111828210171561129657611296611257565b604052919050565b600067ffffffffffffffff8211156112b8576112b8611257565b50601f01601f191660200190565b600080600080608085870312156112dc57600080fd5b6112e585611175565b93506112f360208601611175565b925060408501359150606085013567ffffffffffffffff81111561131657600080fd5b8501601f8101871361132757600080fd5b803561133a6113358261129e565b61126d565b81815288602083850101111561134f57600080fd5b8160208401602083013760006020838301015280935050505092959194509250565b6000806040838503121561138457600080fd5b61138d83611175565b915061139b60208401611175565b90509250929050565b600181811c908216806113b857607f821691505b6020821081036113d857634e487b7160e01b600052602260045260246000fd5b50919050565b6020808252602d908201527f4552433732313a2063616c6c6572206973206e6f7420746f6b656e206f776e6560408201526c1c881bdc88185c1c1c9bdd9959609a1b606082015260800190565b60006020828403121561143d57600080fd5b815161099a81611212565b60006001820161146857634e487b7160e01b600052601160045260246000fd5b5060010190565b60006020828403121561148157600080fd5b815167ffffffffffffffff81111561149857600080fd5b8201601f810184136114a957600080fd5b80516114b76113358261129e565b8181528560208385010111156114cc57600080fd5b6114dd8260208301602086016110f9565b95945050505050565b6000602082840312156114f857600080fd5b5051919050565b60208082526025908201527f4552433732313a207472616e736665722066726f6d20696e636f72726563742060408201526437bbb732b960d91b606082015260800190565b60208082526032908201527f4552433732313a207472616e7366657220746f206e6f6e20455243373231526560408201527131b2b4bb32b91034b6b83632b6b2b73a32b960711b606082015260800190565b6001600160a01b03858116825284166020820152604081018390526080606082018190526000906115c99083018461111d565b9695505050505050565b6000602082840312156115e557600080fd5b815161099a816110c656fea2646970667358221220b7de9ec72201d73c775ea864f50f9ddf2db4959b34b068baf1f629cef092f01864736f6c63430008100033","linkReferences":{}},"methodIdentifiers":{"approve(address,uint256)":"095ea7b3","balanceOf(address)":"70a08231","burn(uint256)":"42966c68","getApproved(uint256)":"081812fc","getStateFingerprint(uint256)":"f5112315","hub()":"365a86fc","isApprovedForAll(address,address)":"e985e9c5","lastLoanId()":"68be92b4","loanContract(uint256)":"a00d21fc","mint(address)":"6a627842","name()":"06fdde03","ownerOf(uint256)":"6352211e","safeTransferFrom(address,address,uint256)":"42842e0e","safeTransferFrom(address,address,uint256,bytes)":"b88d4fde","setApprovalForAll(address,bool)":"a22cb465","supportsInterface(bytes4)":"01ffc9a7","symbol()":"95d89b41","tokenURI(uint256)":"c87b56dd","transferFrom(address,address,uint256)":"23b872dd"},"id":100}