{"abi":[{"type":"constructor","inputs":[{"name":"_hub","type":"address","internalType":"address"},{"name":"_revokedNonce","type":"address","internalType":"address"},{"name":"_config","type":"address","internalType":"address"},{"name":"_utilizedCredit","type":"address","internalType":"address"}],"stateMutability":"nonpayable"},{"type":"function","name":"DOMAIN_SEPARATOR","inputs":[],"outputs":[{"name":"","type":"bytes32","internalType":"bytes32"}],"stateMutability":"view"},{"type":"function","name":"MULTIPROPOSAL_DOMAIN_SEPARATOR","inputs":[],"outputs":[{"name":"","type":"bytes32","internalType":"bytes32"}],"stateMutability":"view"},{"type":"function","name":"MULTIPROPOSAL_TYPEHASH","inputs":[],"outputs":[{"name":"","type":"bytes32","internalType":"bytes32"}],"stateMutability":"view"},{"type":"function","name":"PROPOSAL_TYPEHASH","inputs":[],"outputs":[{"name":"","type":"bytes32","internalType":"bytes32"}],"stateMutability":"view"},{"type":"function","name":"VERSION","inputs":[],"outputs":[{"name":"","type":"string","internalType":"string"}],"stateMutability":"view"},{"type":"function","name":"acceptProposal","inputs":[{"name":"acceptor","type":"address","internalType":"address"},{"name":"refinancingLoanId","type":"uint256","internalType":"uint256"},{"name":"proposalData","type":"bytes","internalType":"bytes"},{"name":"proposalInclusionProof","type":"bytes32[]","internalType":"bytes32[]"},{"name":"signature","type":"bytes","internalType":"bytes"}],"outputs":[{"name":"proposalHash","type":"bytes32","internalType":"bytes32"},{"name":"loanTerms","type":"tuple","internalType":"struct PWNSimpleLoan.Terms","components":[{"name":"lender","type":"address","internalType":"address"},{"name":"borrower","type":"address","internalType":"address"},{"name":"duration","type":"uint32","internalType":"uint32"},{"name":"collateral","type":"tuple","internalType":"struct MultiToken.Asset","components":[{"name":"category","type":"uint8","internalType":"enum MultiToken.Category"},{"name":"assetAddress","type":"address","internalType":"address"},{"name":"id","type":"uint256","internalType":"uint256"},{"name":"amount","type":"uint256","internalType":"uint256"}]},{"name":"credit","type":"tuple","internalType":"struct MultiToken.Asset","components":[{"name":"category","type":"uint8","internalType":"enum MultiToken.Category"},{"name":"assetAddress","type":"address","internalType":"address"},{"name":"id","type":"uint256","internalType":"uint256"},{"name":"amount","type":"uint256","internalType":"uint256"}]},{"name":"fixedInterestAmount","type":"uint256","internalType":"uint256"},{"name":"accruingInterestAPR","type":"uint24","internalType":"uint24"},{"name":"lenderSpecHash","type":"bytes32","internalType":"bytes32"},{"name":"borrowerSpecHash","type":"bytes32","internalType":"bytes32"}]}],"stateMutability":"nonpayable"},{"type":"function","name":"config","inputs":[],"outputs":[{"name":"","type":"address","internalType":"contract PWNConfig"}],"stateMutability":"view"},{"type":"function","name":"decodeProposalData","inputs":[{"name":"proposalData","type":"bytes","internalType":"bytes"}],"outputs":[{"name":"","type":"tuple","internalType":"struct PWNSimpleLoanSimpleProposal.Proposal","components":[{"name":"collateralCategory","type":"uint8","internalType":"enum MultiToken.Category"},{"name":"collateralAddress","type":"address","internalType":"address"},{"name":"collateralId","type":"uint256","internalType":"uint256"},{"name":"collateralAmount","type":"uint256","internalType":"uint256"},{"name":"checkCollateralStateFingerprint","type":"bool","internalType":"bool"},{"name":"collateralStateFingerprint","type":"bytes32","internalType":"bytes32"},{"name":"creditAddress","type":"address","internalType":"address"},{"name":"creditAmount","type":"uint256","internalType":"uint256"},{"name":"availableCreditLimit","type":"uint256","internalType":"uint256"},{"name":"utilizedCreditId","type":"bytes32","internalType":"bytes32"},{"name":"fixedInterestAmount","type":"uint256","internalType":"uint256"},{"name":"accruingInterestAPR","type":"uint24","internalType":"uint24"},{"name":"durationOrDate","type":"uint32","internalType":"uint32"},{"name":"expiration","type":"uint40","internalType":"uint40"},{"name":"allowedAcceptor","type":"address","internalType":"address"},{"name":"proposer","type":"address","internalType":"address"},{"name":"proposerSpecHash","type":"bytes32","internalType":"bytes32"},{"name":"isOffer","type":"bool","internalType":"bool"},{"name":"refinancingLoanId","type":"uint256","internalType":"uint256"},{"name":"nonceSpace","type":"uint256","internalType":"uint256"},{"name":"nonce","type":"uint256","internalType":"uint256"},{"name":"loanContract","type":"address","internalType":"address"}]}],"stateMutability":"pure"},{"type":"function","name":"encodeProposalData","inputs":[{"name":"proposal","type":"tuple","internalType":"struct PWNSimpleLoanSimpleProposal.Proposal","components":[{"name":"collateralCategory","type":"uint8","internalType":"enum MultiToken.Category"},{"name":"collateralAddress","type":"address","internalType":"address"},{"name":"collateralId","type":"uint256","internalType":"uint256"},{"name":"collateralAmount","type":"uint256","internalType":"uint256"},{"name":"checkCollateralStateFingerprint","type":"bool","internalType":"bool"},{"name":"collateralStateFingerprint","type":"bytes32","internalType":"bytes32"},{"name":"creditAddress","type":"address","internalType":"address"},{"name":"creditAmount","type":"uint256","internalType":"uint256"},{"name":"availableCreditLimit","type":"uint256","internalType":"uint256"},{"name":"utilizedCreditId","type":"bytes32","internalType":"bytes32"},{"name":"fixedInterestAmount","type":"uint256","internalType":"uint256"},{"name":"accruingInterestAPR","type":"uint24","internalType":"uint24"},{"name":"durationOrDate","type":"uint32","internalType":"uint32"},{"name":"expiration","type":"uint40","internalType":"uint40"},{"name":"allowedAcceptor","type":"address","internalType":"address"},{"name":"proposer","type":"address","internalType":"address"},{"name":"proposerSpecHash","type":"bytes32","internalType":"bytes32"},{"name":"isOffer","type":"bool","internalType":"bool"},{"name":"refinancingLoanId","type":"uint256","internalType":"uint256"},{"name":"nonceSpace","type":"uint256","internalType":"uint256"},{"name":"nonce","type":"uint256","internalType":"uint256"},{"name":"loanContract","type":"address","internalType":"address"}]}],"outputs":[{"name":"","type":"bytes","internalType":"bytes"}],"stateMutability":"pure"},{"type":"function","name":"getMultiproposalHash","inputs":[{"name":"multiproposal","type":"tuple","internalType":"struct PWNSimpleLoanProposal.Multiproposal","components":[{"name":"multiproposalMerkleRoot","type":"bytes32","internalType":"bytes32"}]}],"outputs":[{"name":"","type":"bytes32","internalType":"bytes32"}],"stateMutability":"view"},{"type":"function","name":"getProposalHash","inputs":[{"name":"proposal","type":"tuple","internalType":"struct PWNSimpleLoanSimpleProposal.Proposal","components":[{"name":"collateralCategory","type":"uint8","internalType":"enum MultiToken.Category"},{"name":"collateralAddress","type":"address","internalType":"address"},{"name":"collateralId","type":"uint256","internalType":"uint256"},{"name":"collateralAmount","type":"uint256","internalType":"uint256"},{"name":"checkCollateralStateFingerprint","type":"bool","internalType":"bool"},{"name":"collateralStateFingerprint","type":"bytes32","internalType":"bytes32"},{"name":"creditAddress","type":"address","internalType":"address"},{"name":"creditAmount","type":"uint256","internalType":"uint256"},{"name":"availableCreditLimit","type":"uint256","internalType":"uint256"},{"name":"utilizedCreditId","type":"bytes32","internalType":"bytes32"},{"name":"fixedInterestAmount","type":"uint256","internalType":"uint256"},{"name":"accruingInterestAPR","type":"uint24","internalType":"uint24"},{"name":"durationOrDate","type":"uint32","internalType":"uint32"},{"name":"expiration","type":"uint40","internalType":"uint40"},{"name":"allowedAcceptor","type":"address","internalType":"address"},{"name":"proposer","type":"address","internalType":"address"},{"name":"proposerSpecHash","type":"bytes32","internalType":"bytes32"},{"name":"isOffer","type":"bool","internalType":"bool"},{"name":"refinancingLoanId","type":"uint256","internalType":"uint256"},{"name":"nonceSpace","type":"uint256","internalType":"uint256"},{"name":"nonce","type":"uint256","internalType":"uint256"},{"name":"loanContract","type":"address","internalType":"address"}]}],"outputs":[{"name":"","type":"bytes32","internalType":"bytes32"}],"stateMutability":"view"},{"type":"function","name":"hub","inputs":[],"outputs":[{"name":"","type":"address","internalType":"contract PWNHub"}],"stateMutability":"view"},{"type":"function","name":"makeProposal","inputs":[{"name":"proposal","type":"tuple","internalType":"struct PWNSimpleLoanSimpleProposal.Proposal","components":[{"name":"collateralCategory","type":"uint8","internalType":"enum MultiToken.Category"},{"name":"collateralAddress","type":"address","internalType":"address"},{"name":"collateralId","type":"uint256","internalType":"uint256"},{"name":"collateralAmount","type":"uint256","internalType":"uint256"},{"name":"checkCollateralStateFingerprint","type":"bool","internalType":"bool"},{"name":"collateralStateFingerprint","type":"bytes32","internalType":"bytes32"},{"name":"creditAddress","type":"address","internalType":"address"},{"name":"creditAmount","type":"uint256","internalType":"uint256"},{"name":"availableCreditLimit","type":"uint256","internalType":"uint256"},{"name":"utilizedCreditId","type":"bytes32","internalType":"bytes32"},{"name":"fixedInterestAmount","type":"uint256","internalType":"uint256"},{"name":"accruingInterestAPR","type":"uint24","internalType":"uint24"},{"name":"durationOrDate","type":"uint32","internalType":"uint32"},{"name":"expiration","type":"uint40","internalType":"uint40"},{"name":"allowedAcceptor","type":"address","internalType":"address"},{"name":"proposer","type":"address","internalType":"address"},{"name":"proposerSpecHash","type":"bytes32","internalType":"bytes32"},{"name":"isOffer","type":"bool","internalType":"bool"},{"name":"refinancingLoanId","type":"uint256","internalType":"uint256"},{"name":"nonceSpace","type":"uint256","internalType":"uint256"},{"name":"nonce","type":"uint256","internalType":"uint256"},{"name":"loanContract","type":"address","internalType":"address"}]}],"outputs":[{"name":"proposalHash","type":"bytes32","internalType":"bytes32"}],"stateMutability":"nonpayable"},{"type":"function","name":"proposalsMade","inputs":[{"name":"","type":"bytes32","internalType":"bytes32"}],"outputs":[{"name":"","type":"bool","internalType":"bool"}],"stateMutability":"view"},{"type":"function","name":"revokeNonce","inputs":[{"name":"nonceSpace","type":"uint256","internalType":"uint256"},{"name":"nonce","type":"uint256","internalType":"uint256"}],"outputs":[],"stateMutability":"nonpayable"},{"type":"function","name":"revokedNonce","inputs":[],"outputs":[{"name":"","type":"address","internalType":"contract PWNRevokedNonce"}],"stateMutability":"view"},{"type":"function","name":"utilizedCredit","inputs":[],"outputs":[{"name":"","type":"address","internalType":"contract PWNUtilizedCredit"}],"stateMutability":"view"},{"type":"event","name":"ProposalMade","inputs":[{"name":"proposalHash","type":"bytes32","indexed":true,"internalType":"bytes32"},{"name":"proposer","type":"address","indexed":true,"internalType":"address"},{"name":"proposal","type":"tuple","indexed":false,"internalType":"struct PWNSimpleLoanSimpleProposal.Proposal","components":[{"name":"collateralCategory","type":"uint8","internalType":"enum MultiToken.Category"},{"name":"collateralAddress","type":"address","internalType":"address"},{"name":"collateralId","type":"uint256","internalType":"uint256"},{"name":"collateralAmount","type":"uint256","internalType":"uint256"},{"name":"checkCollateralStateFingerprint","type":"bool","internalType":"bool"},{"name":"collateralStateFingerprint","type":"bytes32","internalType":"bytes32"},{"name":"creditAddress","type":"address","internalType":"address"},{"name":"creditAmount","type":"uint256","internalType":"uint256"},{"name":"availableCreditLimit","type":"uint256","internalType":"uint256"},{"name":"utilizedCreditId","type":"bytes32","internalType":"bytes32"},{"name":"fixedInterestAmount","type":"uint256","internalType":"uint256"},{"name":"accruingInterestAPR","type":"uint24","internalType":"uint24"},{"name":"durationOrDate","type":"uint32","internalType":"uint32"},{"name":"expiration","type":"uint40","internalType":"uint40"},{"name":"allowedAcceptor","type":"address","internalType":"address"},{"name":"proposer","type":"address","internalType":"address"},{"name":"proposerSpecHash","type":"bytes32","internalType":"bytes32"},{"name":"isOffer","type":"bool","internalType":"bool"},{"name":"refinancingLoanId","type":"uint256","internalType":"uint256"},{"name":"nonceSpace","type":"uint256","internalType":"uint256"},{"name":"nonce","type":"uint256","internalType":"uint256"},{"name":"loanContract","type":"address","internalType":"address"}]}],"anonymous":false},{"type":"error","name":"AcceptorIsProposer","inputs":[{"name":"addr","type":"address","internalType":"address"}]},{"type":"error","name":"AddressMissingHubTag","inputs":[{"name":"addr","type":"address","internalType":"address"},{"name":"tag","type":"bytes32","internalType":"bytes32"}]},{"type":"error","name":"CallerIsNotStatedProposer","inputs":[{"name":"addr","type":"address","internalType":"address"}]},{"type":"error","name":"CallerNotAllowedAcceptor","inputs":[{"name":"current","type":"address","internalType":"address"},{"name":"allowed","type":"address","internalType":"address"}]},{"type":"error","name":"CallerNotLoanContract","inputs":[{"name":"caller","type":"address","internalType":"address"},{"name":"loanContract","type":"address","internalType":"address"}]},{"type":"error","name":"DefaultDateInPast","inputs":[{"name":"defaultDate","type":"uint32","internalType":"uint32"},{"name":"current","type":"uint32","internalType":"uint32"}]},{"type":"error","name":"Expired","inputs":[{"name":"current","type":"uint256","internalType":"uint256"},{"name":"expiration","type":"uint256","internalType":"uint256"}]},{"type":"error","name":"InvalidCollateralStateFingerprint","inputs":[{"name":"current","type":"bytes32","internalType":"bytes32"},{"name":"proposed","type":"bytes32","internalType":"bytes32"}]},{"type":"error","name":"InvalidRefinancingLoanId","inputs":[{"name":"refinancingLoanId","type":"uint256","internalType":"uint256"}]},{"type":"error","name":"InvalidSignature","inputs":[{"name":"signer","type":"address","internalType":"address"},{"name":"digest","type":"bytes32","internalType":"bytes32"}]},{"type":"error","name":"InvalidSignatureLength","inputs":[{"name":"length","type":"uint256","internalType":"uint256"}]},{"type":"error","name":"MissingStateFingerprintComputer","inputs":[]},{"type":"error","name":"NonceNotUsable","inputs":[{"name":"addr","type":"address","internalType":"address"},{"name":"nonceSpace","type":"uint256","internalType":"uint256"},{"name":"nonce","type":"uint256","internalType":"uint256"}]}],"bytecode":{"object":"0x6101406040523480156200001257600080fd5b50604051620027a4380380620027a48339810160408190526200003591620001f6565b604080518082018252601b81527f50574e53696d706c654c6f616e53696d706c6550726f706f73616c0000000000602080830191909152825180840184526003815262312e3360e81b818301526001600160a01b0380891660c05280881660e05280871661010052851661012052925187938793879387939192917f8b73c3c69bb8fe3d512ecc4cf759cc79239f7b179b0ffacaa9a75d522b39400f91620000e09185910162000253565b604051602081830303815290604052805190602001208260405160200162000109919062000253565b60408051601f1981840301815282825280516020918201209083019490945281019190915260608101919091524660808201523060a082015260c00160408051808303601f1901815282825280516020918201206080527fb2178a58fb1eefb359ecfdd57bb19c0bdd0f4e6eed8547f46600e500ed111af3908301527fb63b40822cc79278afd8d1ce1a8006a4a298ec829d4d1610b69b2a4830c232709082015260600160408051601f19818403018152919052805160209091012060a052506200028498505050505050505050565b80516001600160a01b0381168114620001f157600080fd5b919050565b600080600080608085870312156200020d57600080fd5b6200021885620001d9565b93506200022860208601620001d9565b92506200023860408601620001d9565b91506200024860608601620001d9565b905092959194509250565b6000825160005b818110156200027657602081860181015185830152016200025a565b506000920191825250919050565b60805160a05160c05160e05161010051610120516124986200030c600039600081816102260152610f9501526000818161026201526110240152600081816102c30152818161073d01528181610d6e0152610eb80152600081816101e70152610a630152600081816102fd01526107b00152600081816101b2015261093701526124986000f3fe608060405234801561001057600080fd5b506004361061010b5760003560e01c806379502c55116100a2578063a1a20ef211610071578063a1a20ef2146102e5578063abe93878146102f8578063c8d44eb21461031f578063d06a0d8214610332578063ffa1ad741461035957600080fd5b806379502c551461025d578063829d377014610284578063853b94a0146102975780639788ad55146102be57600080fd5b80633644e515116100de5780633644e515146101ad578063365a86fc146101e25780634379dbad14610221578063579bfc301461024857600080fd5b806301e83272146101105780631da4c2751461013a5780632d5d17fc1461016d578063335376cb1461018d575b600080fd5b61012361011e3660046118e9565b61037b565b604051610131929190611a3b565b60405180910390f35b61015d610148366004611adb565b60006020819052908152604090205460ff1681565b6040519015158152602001610131565b61018061017b366004611b34565b610634565b6040516101319190611be5565b6101a061019b366004611dbe565b6106fd565b6040516101319190611f61565b6101d47f000000000000000000000000000000000000000000000000000000000000000081565b604051908152602001610131565b6102097f000000000000000000000000000000000000000000000000000000000000000081565b6040516001600160a01b039091168152602001610131565b6102097f000000000000000000000000000000000000000000000000000000000000000081565b61025b610256366004611f74565b610726565b005b6102097f000000000000000000000000000000000000000000000000000000000000000081565b6101d4610292366004611f96565b6107ac565b6101d47f2e066359c428f5681631554efb295dea6f4a2632b8af4164dd1849b5e6a5970781565b6102097f000000000000000000000000000000000000000000000000000000000000000081565b6101d46102f3366004611fd8565b61087c565b6101d47f000000000000000000000000000000000000000000000000000000000000000081565b6101d461032d366004611fd8565b6108fc565b6101d47f73af92d8ed4d3261ba61cd686d2f8a9cceb2563cc7c4c5355eb121316fc5358d81565b6101a060405180604001604052806003815260200162312e3360e81b81525081565b60006103856117f5565b60006103c689898080601f01602080910402602001604051908101604052809392919081815260200183838082843760009201919091525061063492505050565b90506104117f2e066359c428f5681631554efb295dea6f4a2632b8af4164dd1849b5e6a59707826040516020016103fd9190611be5565b604051602081830303815290604052610933565b92506104fb8b8b858a8a8a8a604051806101e001604052808a602001516001600160a01b031681526020018a6040015181526020018a60800151151581526020018a60a0015181526020018a60e0015181526020018a610100015181526020018a610120015181526020018a6101a0015164ffffffffff1681526020018a6101c001516001600160a01b031681526020018a6101e001516001600160a01b031681526020018a6102200151151581526020018a610240015181526020018a610260015181526020018a610280015181526020018a6102a001516001600160a01b03168152506109c4565b604051806101200160405280826102200151610517578c61051e565b826101e001515b6001600160a01b0316815260200182610220015161054157826101e00151610543565b8c5b6001600160a01b0316815260200161055f8361018001516111d7565b63ffffffff16815260200160405180608001604052808460000151600381111561058b5761058b6119d0565b815260200184602001516001600160a01b0316815260200184604001518152602001846060015181525081526020016105cc8360c001518460e0015161123a565b8152602001826101400151815260200182610160015162ffffff1681526020018261022001516105fd576000610604565b8261020001515b815260200182610220015161061e57826102000151610621565b60005b8152509150509850989650505050505050565b604080516102c08101825260008082526020808301829052928201819052606082018190526080820181905260a0820181905260c0820181905260e08201819052610100820181905261012082018190526101408201819052610160820181905261018082018190526101a082018190526101c082018190526101e08201819052610200820181905261022082018190526102408201819052610260820181905261028082018190526102a0820152825190916106f79184018101908401612033565b92915050565b6060816040516020016107109190611be5565b6040516020818303038152906040529050919050565b60405163f79924a960e01b81526001600160a01b037f0000000000000000000000000000000000000000000000000000000000000000169063f79924a9906107769033908690869060040161217b565b600060405180830381600087803b15801561079057600080fd5b505af11580156107a4573d6000803e3d6000fd5b505050505050565b60007f00000000000000000000000000000000000000000000000000000000000000007f73af92d8ed4d3261ba61cd686d2f8a9cceb2563cc7c4c5355eb121316fc5358d836040516020016108049151815260200190565b60408051601f1981840301815290829052610822929160200161219c565b6040516020818303038152906040528051906020012060405160200161085f92919061190160f01b81526002810192909252602282015260420190565b604051602081830303815290604052805190602001209050919050565b6000610887826108fc565b90506108a48161089f61020085016101e086016121c2565b611272565b6108b661020083016101e084016121c2565b6001600160a01b0316817f94918c29cf820aa7f4261a4066a6933ed25b5aa16ee856d34f6ad5517eb44d22846040516108ef91906121df565b60405180910390a3919050565b60006106f77f2e066359c428f5681631554efb295dea6f4a2632b8af4164dd1849b5e6a59707836040516020016103fd91906121df565b60007f0000000000000000000000000000000000000000000000000000000000000000838360405160200161096992919061219c565b604051602081830303815290604052805190602001206040516020016109a692919061190160f01b81526002810192909252602282015260420190565b60405160208183030381529060405280519060200120905092915050565b806101c001516001600160a01b0316336001600160a01b031614610a18576101c081015160405163a4ce7f2960e01b81523360048201526001600160a01b0390911660248201526044015b60405180910390fd5b6101c081015160405163680cabbd60e11b81526001600160a01b0391821660048201527f9e56ea094d7a53440eef11fa42b63159fbf703b4ee579494a6ae85afc560359460248201527f00000000000000000000000000000000000000000000000000000000000000009091169063d019577a90604401602060405180830381865afa158015610aac573d6000803e3d6000fd5b505050506040513d601f19601f82011682018060405250810190610ad09190612367565b610b25576101c0810151604051630b92eb2560e11b81526001600160a01b0390911660048201527f9e56ea094d7a53440eef11fa42b63159fbf703b4ee579494a6ae85afc56035946024820152604401610a0f565b6000849003610bc55760008681526020819052604090205460ff16610bc057610b8a8161012001518785858080601f0160208091040260200160405190810160405280939291908181526020018383808284376000920191909152506112c292505050565b610bc0576101208101516040516301d2d55760e31b81526001600160a01b03909116600482015260248101879052604401610a0f565b610c67565b6000610be76040518060200160405280610be089898c611469565b90526107ac565b9050610c2f8261012001518286868080601f0160208091040260200160405190810160405280939291908181526020018383808284376000920191909152506112c292505050565b610c65576101208201516040516301d2d55760e31b81526001600160a01b03909116600482015260248101829052604401610a0f565b505b876001600160a01b03168161012001516001600160a01b031603610ca9576040516326ab1a1d60e11b81526001600160a01b0389166004820152602401610a0f565b86600003610ce35761016081015115610cde57806101600151604051637a4b6f9760e11b8152600401610a0f91815260200190565b610d2c565b8061016001518714610d2c57610160810151151580610d055750806101400151155b15610d2c57806101600151604051637a4b6f9760e11b8152600401610a0f91815260200190565b8060e0015164ffffffffff164210610d6c5760e081015160405163aa2fd92560e01b815242600482015264ffffffffff9091166024820152604401610a0f565b7f00000000000000000000000000000000000000000000000000000000000000006001600160a01b031663f291a62c826101200151836101800151846101a001516040518463ffffffff1660e01b8152600401610dcb9392919061217b565b602060405180830381865afa158015610de8573d6000803e3d6000fd5b505050506040513d601f19601f82011682018060405250810190610e0c9190612367565b610e3e57806101200151816101800151826101a00151604051632108c30560e11b8152600401610a0f9392919061217b565b6101008101516001600160a01b031615801590610e7257508061010001516001600160a01b0316886001600160a01b031614155b15610eaa57610100810151604051636075c95560e11b81526001600160a01b03808b1660048301529091166024820152604401610a0f565b8060a00151600003610f4c577f00000000000000000000000000000000000000000000000000000000000000006001600160a01b031663f79924a9826101200151836101800151846101a001516040518463ffffffff1660e01b8152600401610f159392919061217b565b600060405180830381600087803b158015610f2f57600080fd5b505af1158015610f43573d6000803e3d6000fd5b50505050610ff4565b61012081015160c0820151608083015160a0840151604051638f8ea94960e01b81526001600160a01b0394851660048201526024810193909352604483019190915260648201527f000000000000000000000000000000000000000000000000000000000000000090911690638f8ea94990608401600060405180830381600087803b158015610fdb57600080fd5b505af1158015610fef573d6000803e3d6000fd5b505050505b8060400151156111cd578051604051630b7e49eb60e21b81526001600160a01b03918216600482015260009182917f000000000000000000000000000000000000000000000000000000000000000090911690632df927ac90602401602060405180830381865afa15801561106d573d6000803e3d6000fd5b505050506040513d601f19601f820116820180604052508101906110919190612384565b90506001600160a01b0381161561112f578251602084015160405163ec2ce34560e01b81526001600160a01b0384169263ec2ce345926110e7926004016001600160a01b03929092168252602082015260400190565b602060405180830381865afa158015611104573d6000803e3d6000fd5b505050506040513d601f19601f8201168201806040525081019061112891906123a1565b9150611196565b82516111429063f511231560e01b6114b5565b1561117d578251602084015160405163f511231560e01b81526001600160a01b039092169163f5112315916110e79160040190815260200190565b60405163f3c0936360e01b815260040160405180910390fd5b818360600151146111ca576060830151604051633840fc0160e01b8152610a0f918491600401918252602082015260400190565b50505b5050505050505050565b6000633b9aca008263ffffffff16116111ee575090565b428263ffffffff16111561120c576106f74263ffffffff84166123d0565b60405163e5084aed60e01b815263ffffffff808416600483015242166024820152604401610a0f565b919050565b61124261184e565b506040805160808101825260008082526001600160a01b0394909416602082015290810192909252606082015290565b336001600160a01b038216146112a657604051631144200360e31b81526001600160a01b0382166004820152602401610a0f565b506000908152602081905260409020805460ff19166001179055565b60006001600160a01b0384163b156113bd57600080856001600160a01b0316631626ba7e60e01b86866040516024016112fc9291906123e3565b60408051601f198184030181529181526020820180516001600160e01b03166001600160e01b031990941693909317909252905161133a9190612404565b600060405180830381855afa9150503d8060008114611375576040519150601f19603f3d011682016040523d82523d6000602084013e61137a565b606091505b509150915081801561138d575080516020145b80156113b457508051630b135d3f60e11b906113b290830160209081019084016123a1565b145b92505050611462565b600080600084516041036113e55750505060208201516040830151606084015160001a61143c565b845160400361141e57602085015160408601519093506001600160ff1b038116925061141660ff82901c601b612420565b91505061143c565b845160405163058676ad60e31b8152600401610a0f91815260200190565b611448868285856114d1565b6001600160a01b0316876001600160a01b03161493505050505b9392505050565b600081815b848110156114ac576114988287878481811061148c5761148c612433565b905060200201356114f9565b9150806114a481612449565b91505061146e565b50949350505050565b60006114c083611528565b80156114625750611462838361155b565b60008060006114e2878787876115e4565b915091506114ef816116a8565b5095945050505050565b6000818310611515576000828152602084905260409020611462565b6000838152602083905260409020611462565b600061153b826301ffc9a760e01b61155b565b80156106f75750611554826001600160e01b031961155b565b1592915050565b604080516001600160e01b03198316602480830191909152825180830390910181526044909101909152602080820180516001600160e01b03166301ffc9a760e01b178152825160009392849283928392918391908a617530fa92503d915060005190508280156115cd575060208210155b80156115d95750600081115b979650505050505050565b6000807f7fffffffffffffffffffffffffffffff5d576e7357a4501ddfe92f46681b20a083111561161b575060009050600361169f565b6040805160008082526020820180845289905260ff881692820192909252606081018690526080810185905260019060a0016020604051602081039080840390855afa15801561166f573d6000803e3d6000fd5b5050604051601f1901519150506001600160a01b0381166116985760006001925092505061169f565b9150600090505b94509492505050565b60008160048111156116bc576116bc6119d0565b036116c45750565b60018160048111156116d8576116d86119d0565b036117255760405162461bcd60e51b815260206004820152601860248201527f45434453413a20696e76616c6964207369676e617475726500000000000000006044820152606401610a0f565b6002816004811115611739576117396119d0565b036117865760405162461bcd60e51b815260206004820152601f60248201527f45434453413a20696e76616c6964207369676e6174757265206c656e677468006044820152606401610a0f565b600381600481111561179a5761179a6119d0565b036117f25760405162461bcd60e51b815260206004820152602260248201527f45434453413a20696e76616c6964207369676e6174757265202773272076616c604482015261756560f01b6064820152608401610a0f565b50565b6040805161012081018252600080825260208201819052918101919091526060810161181f61184e565b815260200161182c61184e565b8152600060208201819052604082018190526060820181905260809091015290565b6040805160808101909152806000815260200160006001600160a01b0316815260200160008152602001600081525090565b6001600160a01b03811681146117f257600080fd5b803561123581611880565b60008083601f8401126118b257600080fd5b50813567ffffffffffffffff8111156118ca57600080fd5b6020830191508360208285010111156118e257600080fd5b9250929050565b60008060008060008060008060a0898b03121561190557600080fd5b883561191081611880565b975060208901359650604089013567ffffffffffffffff8082111561193457600080fd5b6119408c838d016118a0565b909850965060608b013591508082111561195957600080fd5b818b0191508b601f83011261196d57600080fd5b81358181111561197c57600080fd5b8c60208260051b850101111561199157600080fd5b6020830196508095505060808b01359150808211156119af57600080fd5b506119bc8b828c016118a0565b999c989b5096995094979396929594505050565b634e487b7160e01b600052602160045260246000fd5b60048110611a0457634e487b7160e01b600052602160045260246000fd5b9052565b611a138282516119e6565b6020818101516001600160a01b03169083015260408082015190830152606090810151910152565b82815281516001600160a01b03166020820152610200810160208301516001600160a01b038116604084015250604083015163ffffffff81166060840152506060830151611a8c6080840182611a08565b506080830151610100611aa181850183611a08565b60a085015161018085015260c085015162ffffff166101a085015260e08501516101c0850152909301516101e09092019190915292915050565b600060208284031215611aed57600080fd5b5035919050565b634e487b7160e01b600052604160045260246000fd5b6040516102c0810167ffffffffffffffff81118282101715611b2e57611b2e611af4565b60405290565b600060208284031215611b4657600080fd5b813567ffffffffffffffff80821115611b5e57600080fd5b818401915084601f830112611b7257600080fd5b813581811115611b8457611b84611af4565b604051601f8201601f19908116603f01168101908382118183101715611bac57611bac611af4565b81604052828152876020848701011115611bc557600080fd5b826020860160208301376000928101602001929092525095945050505050565b60006102c082019050611bf98284516119e6565b6020830151611c1360208401826001600160a01b03169052565b5060408301516040830152606083015160608301526080830151611c3b608084018215159052565b5060a083015160a083015260c0830151611c6060c08401826001600160a01b03169052565b5060e083810151908301526101008084015190830152610120808401519083015261014080840151908301526101608084015162ffffff16908301526101808084015163ffffffff16908301526101a08084015164ffffffffff16908301526101c0808401516001600160a01b03908116918401919091526101e0808501518216908401526102008085015190840152610220808501511515908401526102408085015190840152610260808501519084015261028080850151908401526102a08085015191821681850152905b505092915050565b600481106117f257600080fd5b803561123581611d36565b80151581146117f257600080fd5b803561123581611d4e565b62ffffff811681146117f257600080fd5b803561123581611d67565b63ffffffff811681146117f257600080fd5b803561123581611d83565b64ffffffffff811681146117f257600080fd5b803561123581611da0565b60006102c08284031215611dd157600080fd5b611dd9611b0a565b611de283611d43565b8152611df060208401611895565b60208201526040830135604082015260608301356060820152611e1560808401611d5c565b608082015260a083013560a0820152611e3060c08401611895565b60c082015260e08381013590820152610100808401359082015261012080840135908201526101408084013590820152610160611e6e818501611d78565b90820152610180611e80848201611d95565b908201526101a0611e92848201611db3565b908201526101c0611ea4848201611895565b908201526101e0611eb6848201611895565b908201526102008381013590820152610220611ed3818501611d5c565b908201526102408381013590820152610260808401359082015261028080840135908201526102a0611f06818501611895565b908201529392505050565b60005b83811015611f2c578181015183820152602001611f14565b50506000910152565b60008151808452611f4d816020860160208601611f11565b601f01601f19169290920160200192915050565b6020815260006114626020830184611f35565b60008060408385031215611f8757600080fd5b50508035926020909101359150565b600060208284031215611fa857600080fd5b6040516020810181811067ffffffffffffffff82111715611fcb57611fcb611af4565b6040529135825250919050565b60006102c08284031215611feb57600080fd5b50919050565b805161123581611d36565b805161123581611880565b805161123581611d4e565b805161123581611d67565b805161123581611d83565b805161123581611da0565b60006102c0828403121561204657600080fd5b61204e611b0a565b61205783611ff1565b815261206560208401611ffc565b6020820152604083015160408201526060830151606082015261208a60808401612007565b608082015260a083015160a08201526120a560c08401611ffc565b60c082015260e083810151908201526101008084015190820152610120808401519082015261014080840151908201526101606120e3818501612012565b908201526101806120f584820161201d565b908201526101a0612107848201612028565b908201526101c0612119848201611ffc565b908201526101e061212b848201611ffc565b908201526102008381015190820152610220612148818501612007565b908201526102408381015190820152610260808401519082015261028080840151908201526102a0611f06818501611ffc565b6001600160a01b039390931683526020830191909152604082015260600190565b828152600082516121b4816020850160208701611f11565b919091016020019392505050565b6000602082840312156121d457600080fd5b813561146281611880565b6102c081016121f6826121f185611d43565b6119e6565b61220260208401611895565b6001600160a01b038116602084015250604083013560408301526060830135606083015261223260808401611d5c565b1515608083015260a0838101359083015261224f60c08401611895565b6001600160a01b031660c083015260e08381013590830152610100808401359083015261012080840135908301526101408084013590830152610160612296818501611d78565b62ffffff16908301526101806122ad848201611d95565b63ffffffff16908301526101a06122c5848201611db3565b64ffffffffff16908301526101c06122de848201611895565b6001600160a01b0316908301526101e06122f9848201611895565b6001600160a01b031690830152610200838101359083015261022061231f818501611d5c565b1515908301526102408381013590830152610260808401359083015261028080840135908301526102a0612354818501611895565b6001600160a01b03811684830152611d2e565b60006020828403121561237957600080fd5b815161146281611d4e565b60006020828403121561239657600080fd5b815161146281611880565b6000602082840312156123b357600080fd5b5051919050565b634e487b7160e01b600052601160045260246000fd5b818103818111156106f7576106f76123ba565b8281526040602082015260006123fc6040830184611f35565b949350505050565b60008251612416818460208701611f11565b9190910192915050565b808201808211156106f7576106f76123ba565b634e487b7160e01b600052603260045260246000fd5b60006001820161245b5761245b6123ba565b506001019056fea2646970667358221220d1c79fb65b29e4e9487c9bdf24e8c0288745b6e97771284c74f63ca87e7f741164736f6c63430008100033","linkReferences":{}},"methodIdentifiers":{"DOMAIN_SEPARATOR()":"3644e515","MULTIPROPOSAL_DOMAIN_SEPARATOR()":"abe93878","MULTIPROPOSAL_TYPEHASH()":"d06a0d82","PROPOSAL_TYPEHASH()":"853b94a0","VERSION()":"ffa1ad74","acceptProposal(address,uint256,bytes,bytes32[],bytes)":"01e83272","config()":"79502c55","decodeProposalData(bytes)":"2d5d17fc","encodeProposalData((uint8,address,uint256,uint256,bool,bytes32,address,uint256,uint256,bytes32,uint256,uint24,uint32,uint40,address,address,bytes32,bool,uint256,uint256,uint256,address))":"335376cb","getMultiproposalHash((bytes32))":"829d3770","getProposalHash((uint8,address,uint256,uint256,bool,bytes32,address,uint256,uint256,bytes32,uint256,uint24,uint32,uint40,address,address,bytes32,bool,uint256,uint256,uint256,address))":"c8d44eb2","hub()":"365a86fc","makeProposal((uint8,address,uint256,uint256,bool,bytes32,address,uint256,uint256,bytes32,uint256,uint24,uint32,uint40,address,address,bytes32,bool,uint256,uint256,uint256,address))":"a1a20ef2","proposalsMade(bytes32)":"1da4c275","revokeNonce(uint256,uint256)":"579bfc30","revokedNonce()":"9788ad55","utilizedCredit()":"4379dbad"},"id":99}