{"abi":[{"type":"constructor","inputs":[{"name":"_hub","type":"address","internalType":"address"},{"name":"_loanToken","type":"address","internalType":"address"},{"name":"_config","type":"address","internalType":"address"},{"name":"_revokedNonce","type":"address","internalType":"address"},{"name":"_categoryRegistry","type":"address","internalType":"address"}],"stateMutability":"nonpayable"},{"type":"function","name":"ACCRUING_INTEREST_APR_DECIMALS","inputs":[],"outputs":[{"name":"","type":"uint256","internalType":"uint256"}],"stateMutability":"view"},{"type":"function","name":"ACCRUING_INTEREST_APR_DENOMINATOR","inputs":[],"outputs":[{"name":"","type":"uint256","internalType":"uint256"}],"stateMutability":"view"},{"type":"function","name":"DOMAIN_SEPARATOR","inputs":[],"outputs":[{"name":"","type":"bytes32","internalType":"bytes32"}],"stateMutability":"view"},{"type":"function","name":"EXTENSION_PROPOSAL_TYPEHASH","inputs":[],"outputs":[{"name":"","type":"bytes32","internalType":"bytes32"}],"stateMutability":"view"},{"type":"function","name":"MAX_ACCRUING_INTEREST_APR","inputs":[],"outputs":[{"name":"","type":"uint40","internalType":"uint40"}],"stateMutability":"view"},{"type":"function","name":"MAX_EXTENSION_DURATION","inputs":[],"outputs":[{"name":"","type":"uint256","internalType":"uint256"}],"stateMutability":"view"},{"type":"function","name":"MINUTES_IN_YEAR","inputs":[],"outputs":[{"name":"","type":"uint256","internalType":"uint256"}],"stateMutability":"view"},{"type":"function","name":"MIN_EXTENSION_DURATION","inputs":[],"outputs":[{"name":"","type":"uint256","internalType":"uint256"}],"stateMutability":"view"},{"type":"function","name":"MIN_LOAN_DURATION","inputs":[],"outputs":[{"name":"","type":"uint32","internalType":"uint32"}],"stateMutability":"view"},{"type":"function","name":"VERSION","inputs":[],"outputs":[{"name":"","type":"string","internalType":"string"}],"stateMutability":"view"},{"type":"function","name":"categoryRegistry","inputs":[],"outputs":[{"name":"","type":"address","internalType":"contract IMultiTokenCategoryRegistry"}],"stateMutability":"view"},{"type":"function","name":"claimLOAN","inputs":[{"name":"loanId","type":"uint256","internalType":"uint256"}],"outputs":[],"stateMutability":"nonpayable"},{"type":"function","name":"config","inputs":[],"outputs":[{"name":"","type":"address","internalType":"contract PWNConfig"}],"stateMutability":"view"},{"type":"function","name":"createLOAN","inputs":[{"name":"proposalSpec","type":"tuple","internalType":"struct PWNSimpleLoan.ProposalSpec","components":[{"name":"proposalContract","type":"address","internalType":"address"},{"name":"proposalData","type":"bytes","internalType":"bytes"},{"name":"proposalInclusionProof","type":"bytes32[]","internalType":"bytes32[]"},{"name":"signature","type":"bytes","internalType":"bytes"}]},{"name":"lenderSpec","type":"tuple","internalType":"struct PWNSimpleLoan.LenderSpec","components":[{"name":"sourceOfFunds","type":"address","internalType":"address"}]},{"name":"callerSpec","type":"tuple","internalType":"struct PWNSimpleLoan.CallerSpec","components":[{"name":"refinancingLoanId","type":"uint256","internalType":"uint256"},{"name":"revokeNonce","type":"bool","internalType":"bool"},{"name":"nonce","type":"uint256","internalType":"uint256"}]},{"name":"extra","type":"bytes","internalType":"bytes"}],"outputs":[{"name":"loanId","type":"uint256","internalType":"uint256"}],"stateMutability":"nonpayable"},{"type":"function","name":"extendLOAN","inputs":[{"name":"extension","type":"tuple","internalType":"struct PWNSimpleLoan.ExtensionProposal","components":[{"name":"loanId","type":"uint256","internalType":"uint256"},{"name":"compensationAddress","type":"address","internalType":"address"},{"name":"compensationAmount","type":"uint256","internalType":"uint256"},{"name":"duration","type":"uint40","internalType":"uint40"},{"name":"expiration","type":"uint40","internalType":"uint40"},{"name":"proposer","type":"address","internalType":"address"},{"name":"nonceSpace","type":"uint256","internalType":"uint256"},{"name":"nonce","type":"uint256","internalType":"uint256"}]},{"name":"signature","type":"bytes","internalType":"bytes"}],"outputs":[],"stateMutability":"nonpayable"},{"type":"function","name":"extensionProposalsMade","inputs":[{"name":"","type":"bytes32","internalType":"bytes32"}],"outputs":[{"name":"","type":"bool","internalType":"bool"}],"stateMutability":"view"},{"type":"function","name":"getExtensionHash","inputs":[{"name":"extension","type":"tuple","internalType":"struct PWNSimpleLoan.ExtensionProposal","components":[{"name":"loanId","type":"uint256","internalType":"uint256"},{"name":"compensationAddress","type":"address","internalType":"address"},{"name":"compensationAmount","type":"uint256","internalType":"uint256"},{"name":"duration","type":"uint40","internalType":"uint40"},{"name":"expiration","type":"uint40","internalType":"uint40"},{"name":"proposer","type":"address","internalType":"address"},{"name":"nonceSpace","type":"uint256","internalType":"uint256"},{"name":"nonce","type":"uint256","internalType":"uint256"}]}],"outputs":[{"name":"","type":"bytes32","internalType":"bytes32"}],"stateMutability":"view"},{"type":"function","name":"getLOAN","inputs":[{"name":"loanId","type":"uint256","internalType":"uint256"}],"outputs":[{"name":"status","type":"uint8","internalType":"uint8"},{"name":"startTimestamp","type":"uint40","internalType":"uint40"},{"name":"defaultTimestamp","type":"uint40","internalType":"uint40"},{"name":"borrower","type":"address","internalType":"address"},{"name":"originalLender","type":"address","internalType":"address"},{"name":"loanOwner","type":"address","internalType":"address"},{"name":"accruingInterestAPR","type":"uint24","internalType":"uint24"},{"name":"fixedInterestAmount","type":"uint256","internalType":"uint256"},{"name":"credit","type":"tuple","internalType":"struct MultiToken.Asset","components":[{"name":"category","type":"uint8","internalType":"enum MultiToken.Category"},{"name":"assetAddress","type":"address","internalType":"address"},{"name":"id","type":"uint256","internalType":"uint256"},{"name":"amount","type":"uint256","internalType":"uint256"}]},{"name":"collateral","type":"tuple","internalType":"struct MultiToken.Asset","components":[{"name":"category","type":"uint8","internalType":"enum MultiToken.Category"},{"name":"assetAddress","type":"address","internalType":"address"},{"name":"id","type":"uint256","internalType":"uint256"},{"name":"amount","type":"uint256","internalType":"uint256"}]},{"name":"originalSourceOfFunds","type":"address","internalType":"address"},{"name":"repaymentAmount","type":"uint256","internalType":"uint256"}],"stateMutability":"view"},{"type":"function","name":"getLenderSpecHash","inputs":[{"name":"lenderSpec","type":"tuple","internalType":"struct PWNSimpleLoan.LenderSpec","components":[{"name":"sourceOfFunds","type":"address","internalType":"address"}]}],"outputs":[{"name":"","type":"bytes32","internalType":"bytes32"}],"stateMutability":"pure"},{"type":"function","name":"getStateFingerprint","inputs":[{"name":"tokenId","type":"uint256","internalType":"uint256"}],"outputs":[{"name":"","type":"bytes32","internalType":"bytes32"}],"stateMutability":"view"},{"type":"function","name":"hub","inputs":[],"outputs":[{"name":"","type":"address","internalType":"contract PWNHub"}],"stateMutability":"view"},{"type":"function","name":"isValidAsset","inputs":[{"name":"asset","type":"tuple","internalType":"struct MultiToken.Asset","components":[{"name":"category","type":"uint8","internalType":"enum MultiToken.Category"},{"name":"assetAddress","type":"address","internalType":"address"},{"name":"id","type":"uint256","internalType":"uint256"},{"name":"amount","type":"uint256","internalType":"uint256"}]}],"outputs":[{"name":"","type":"bool","internalType":"bool"}],"stateMutability":"view"},{"type":"function","name":"loanMetadataUri","inputs":[],"outputs":[{"name":"","type":"string","internalType":"string"}],"stateMutability":"view"},{"type":"function","name":"loanRepaymentAmount","inputs":[{"name":"loanId","type":"uint256","internalType":"uint256"}],"outputs":[{"name":"","type":"uint256","internalType":"uint256"}],"stateMutability":"view"},{"type":"function","name":"loanToken","inputs":[],"outputs":[{"name":"","type":"address","internalType":"contract PWNLOAN"}],"stateMutability":"view"},{"type":"function","name":"makeExtensionProposal","inputs":[{"name":"extension","type":"tuple","internalType":"struct PWNSimpleLoan.ExtensionProposal","components":[{"name":"loanId","type":"uint256","internalType":"uint256"},{"name":"compensationAddress","type":"address","internalType":"address"},{"name":"compensationAmount","type":"uint256","internalType":"uint256"},{"name":"duration","type":"uint40","internalType":"uint40"},{"name":"expiration","type":"uint40","internalType":"uint40"},{"name":"proposer","type":"address","internalType":"address"},{"name":"nonceSpace","type":"uint256","internalType":"uint256"},{"name":"nonce","type":"uint256","internalType":"uint256"}]}],"outputs":[],"stateMutability":"nonpayable"},{"type":"function","name":"onERC1155BatchReceived","inputs":[{"name":"","type":"address","internalType":"address"},{"name":"","type":"address","internalType":"address"},{"name":"","type":"uint256[]","internalType":"uint256[]"},{"name":"","type":"uint256[]","internalType":"uint256[]"},{"name":"","type":"bytes","internalType":"bytes"}],"outputs":[{"name":"","type":"bytes4","internalType":"bytes4"}],"stateMutability":"pure"},{"type":"function","name":"onERC1155Received","inputs":[{"name":"operator","type":"address","internalType":"address"},{"name":"","type":"address","internalType":"address"},{"name":"","type":"uint256","internalType":"uint256"},{"name":"","type":"uint256","internalType":"uint256"},{"name":"","type":"bytes","internalType":"bytes"}],"outputs":[{"name":"","type":"bytes4","internalType":"bytes4"}],"stateMutability":"view"},{"type":"function","name":"onERC721Received","inputs":[{"name":"operator","type":"address","internalType":"address"},{"name":"","type":"address","internalType":"address"},{"name":"","type":"uint256","internalType":"uint256"},{"name":"","type":"bytes","internalType":"bytes"}],"outputs":[{"name":"","type":"bytes4","internalType":"bytes4"}],"stateMutability":"view"},{"type":"function","name":"repayLOAN","inputs":[{"name":"loanId","type":"uint256","internalType":"uint256"}],"outputs":[],"stateMutability":"nonpayable"},{"type":"function","name":"revokedNonce","inputs":[],"outputs":[{"name":"","type":"address","internalType":"contract PWNRevokedNonce"}],"stateMutability":"view"},{"type":"function","name":"supportsInterface","inputs":[{"name":"interfaceId","type":"bytes4","internalType":"bytes4"}],"outputs":[{"name":"","type":"bool","internalType":"bool"}],"stateMutability":"pure"},{"type":"function","name":"tryClaimRepaidLOAN","inputs":[{"name":"loanId","type":"uint256","internalType":"uint256"},{"name":"creditAmount","type":"uint256","internalType":"uint256"},{"name":"loanOwner","type":"address","internalType":"address"}],"outputs":[],"stateMutability":"nonpayable"},{"type":"event","name":"ExtensionProposalMade","inputs":[{"name":"extensionHash","type":"bytes32","indexed":true,"internalType":"bytes32"},{"name":"proposer","type":"address","indexed":true,"internalType":"address"},{"name":"proposal","type":"tuple","indexed":false,"internalType":"struct PWNSimpleLoan.ExtensionProposal","components":[{"name":"loanId","type":"uint256","internalType":"uint256"},{"name":"compensationAddress","type":"address","internalType":"address"},{"name":"compensationAmount","type":"uint256","internalType":"uint256"},{"name":"duration","type":"uint40","internalType":"uint40"},{"name":"expiration","type":"uint40","internalType":"uint40"},{"name":"proposer","type":"address","internalType":"address"},{"name":"nonceSpace","type":"uint256","internalType":"uint256"},{"name":"nonce","type":"uint256","internalType":"uint256"}]}],"anonymous":false},{"type":"event","name":"LOANClaimed","inputs":[{"name":"loanId","type":"uint256","indexed":true,"internalType":"uint256"},{"name":"defaulted","type":"bool","indexed":true,"internalType":"bool"}],"anonymous":false},{"type":"event","name":"LOANCreated","inputs":[{"name":"loanId","type":"uint256","indexed":true,"internalType":"uint256"},{"name":"proposalHash","type":"bytes32","indexed":true,"internalType":"bytes32"},{"name":"proposalContract","type":"address","indexed":true,"internalType":"address"},{"name":"refinancingLoanId","type":"uint256","indexed":false,"internalType":"uint256"},{"name":"terms","type":"tuple","indexed":false,"internalType":"struct PWNSimpleLoan.Terms","components":[{"name":"lender","type":"address","internalType":"address"},{"name":"borrower","type":"address","internalType":"address"},{"name":"duration","type":"uint32","internalType":"uint32"},{"name":"collateral","type":"tuple","internalType":"struct MultiToken.Asset","components":[{"name":"category","type":"uint8","internalType":"enum MultiToken.Category"},{"name":"assetAddress","type":"address","internalType":"address"},{"name":"id","type":"uint256","internalType":"uint256"},{"name":"amount","type":"uint256","internalType":"uint256"}]},{"name":"credit","type":"tuple","internalType":"struct MultiToken.Asset","components":[{"name":"category","type":"uint8","internalType":"enum MultiToken.Category"},{"name":"assetAddress","type":"address","internalType":"address"},{"name":"id","type":"uint256","internalType":"uint256"},{"name":"amount","type":"uint256","internalType":"uint256"}]},{"name":"fixedInterestAmount","type":"uint256","internalType":"uint256"},{"name":"accruingInterestAPR","type":"uint24","internalType":"uint24"},{"name":"lenderSpecHash","type":"bytes32","internalType":"bytes32"},{"name":"borrowerSpecHash","type":"bytes32","internalType":"bytes32"}]},{"name":"lenderSpec","type":"tuple","indexed":false,"internalType":"struct PWNSimpleLoan.LenderSpec","components":[{"name":"sourceOfFunds","type":"address","internalType":"address"}]},{"name":"extra","type":"bytes","indexed":false,"internalType":"bytes"}],"anonymous":false},{"type":"event","name":"LOANExtended","inputs":[{"name":"loanId","type":"uint256","indexed":true,"internalType":"uint256"},{"name":"originalDefaultTimestamp","type":"uint40","indexed":false,"internalType":"uint40"},{"name":"extendedDefaultTimestamp","type":"uint40","indexed":false,"internalType":"uint40"}],"anonymous":false},{"type":"event","name":"LOANPaidBack","inputs":[{"name":"loanId","type":"uint256","indexed":true,"internalType":"uint256"}],"anonymous":false},{"type":"event","name":"PoolSupply","inputs":[{"name":"asset","type":"tuple","indexed":false,"internalType":"struct MultiToken.Asset","components":[{"name":"category","type":"uint8","internalType":"enum MultiToken.Category"},{"name":"assetAddress","type":"address","internalType":"address"},{"name":"id","type":"uint256","internalType":"uint256"},{"name":"amount","type":"uint256","internalType":"uint256"}]},{"name":"poolAdapter","type":"address","indexed":true,"internalType":"address"},{"name":"pool","type":"address","indexed":true,"internalType":"address"},{"name":"owner","type":"address","indexed":true,"internalType":"address"}],"anonymous":false},{"type":"event","name":"PoolWithdraw","inputs":[{"name":"asset","type":"tuple","indexed":false,"internalType":"struct MultiToken.Asset","components":[{"name":"category","type":"uint8","internalType":"enum MultiToken.Category"},{"name":"assetAddress","type":"address","internalType":"address"},{"name":"id","type":"uint256","internalType":"uint256"},{"name":"amount","type":"uint256","internalType":"uint256"}]},{"name":"poolAdapter","type":"address","indexed":true,"internalType":"address"},{"name":"pool","type":"address","indexed":true,"internalType":"address"},{"name":"owner","type":"address","indexed":true,"internalType":"address"}],"anonymous":false},{"type":"event","name":"VaultPull","inputs":[{"name":"asset","type":"tuple","indexed":false,"internalType":"struct MultiToken.Asset","components":[{"name":"category","type":"uint8","internalType":"enum MultiToken.Category"},{"name":"assetAddress","type":"address","internalType":"address"},{"name":"id","type":"uint256","internalType":"uint256"},{"name":"amount","type":"uint256","internalType":"uint256"}]},{"name":"origin","type":"address","indexed":true,"internalType":"address"}],"anonymous":false},{"type":"event","name":"VaultPush","inputs":[{"name":"asset","type":"tuple","indexed":false,"internalType":"struct MultiToken.Asset","components":[{"name":"category","type":"uint8","internalType":"enum MultiToken.Category"},{"name":"assetAddress","type":"address","internalType":"address"},{"name":"id","type":"uint256","internalType":"uint256"},{"name":"amount","type":"uint256","internalType":"uint256"}]},{"name":"beneficiary","type":"address","indexed":true,"internalType":"address"}],"anonymous":false},{"type":"event","name":"VaultPushFrom","inputs":[{"name":"asset","type":"tuple","indexed":false,"internalType":"struct MultiToken.Asset","components":[{"name":"category","type":"uint8","internalType":"enum MultiToken.Category"},{"name":"assetAddress","type":"address","internalType":"address"},{"name":"id","type":"uint256","internalType":"uint256"},{"name":"amount","type":"uint256","internalType":"uint256"}]},{"name":"origin","type":"address","indexed":true,"internalType":"address"},{"name":"beneficiary","type":"address","indexed":true,"internalType":"address"}],"anonymous":false},{"type":"error","name":"AddressMissingHubTag","inputs":[{"name":"addr","type":"address","internalType":"address"},{"name":"tag","type":"bytes32","internalType":"bytes32"}]},{"type":"error","name":"CallerNotLOANTokenHolder","inputs":[]},{"type":"error","name":"CallerNotVault","inputs":[]},{"type":"error","name":"Expired","inputs":[{"name":"current","type":"uint256","internalType":"uint256"},{"name":"expiration","type":"uint256","internalType":"uint256"}]},{"type":"error","name":"IncompleteTransfer","inputs":[]},{"type":"error","name":"InterestAPROutOfBounds","inputs":[{"name":"current","type":"uint256","internalType":"uint256"},{"name":"limit","type":"uint256","internalType":"uint256"}]},{"type":"error","name":"InvalidDuration","inputs":[{"name":"current","type":"uint256","internalType":"uint256"},{"name":"limit","type":"uint256","internalType":"uint256"}]},{"type":"error","name":"InvalidExtensionCaller","inputs":[]},{"type":"error","name":"InvalidExtensionDuration","inputs":[{"name":"duration","type":"uint256","internalType":"uint256"},{"name":"limit","type":"uint256","internalType":"uint256"}]},{"type":"error","name":"InvalidExtensionSigner","inputs":[{"name":"allowed","type":"address","internalType":"address"},{"name":"current","type":"address","internalType":"address"}]},{"type":"error","name":"InvalidLenderSpecHash","inputs":[{"name":"current","type":"bytes32","internalType":"bytes32"},{"name":"expected","type":"bytes32","internalType":"bytes32"}]},{"type":"error","name":"InvalidMultiTokenAsset","inputs":[{"name":"category","type":"uint8","internalType":"uint8"},{"name":"addr","type":"address","internalType":"address"},{"name":"id","type":"uint256","internalType":"uint256"},{"name":"amount","type":"uint256","internalType":"uint256"}]},{"type":"error","name":"InvalidSignature","inputs":[{"name":"signer","type":"address","internalType":"address"},{"name":"digest","type":"bytes32","internalType":"bytes32"}]},{"type":"error","name":"InvalidSignatureLength","inputs":[{"name":"length","type":"uint256","internalType":"uint256"}]},{"type":"error","name":"InvalidSourceOfFunds","inputs":[{"name":"sourceOfFunds","type":"address","internalType":"address"}]},{"type":"error","name":"LoanDefaulted","inputs":[{"name":"timestap","type":"uint40","internalType":"uint40"}]},{"type":"error","name":"LoanNotAutoclaimable","inputs":[]},{"type":"error","name":"LoanNotRepaid","inputs":[]},{"type":"error","name":"LoanNotRunning","inputs":[]},{"type":"error","name":"LoanRepaid","inputs":[]},{"type":"error","name":"LoanRunning","inputs":[]},{"type":"error","name":"NonExistingLoan","inputs":[]},{"type":"error","name":"NonceNotUsable","inputs":[{"name":"addr","type":"address","internalType":"address"},{"name":"nonceSpace","type":"uint256","internalType":"uint256"},{"name":"nonce","type":"uint256","internalType":"uint256"}]},{"type":"error","name":"RefinanceBorrowerMismatch","inputs":[{"name":"currentBorrower","type":"address","internalType":"address"},{"name":"newBorrower","type":"address","internalType":"address"}]},{"type":"error","name":"RefinanceCollateralMismatch","inputs":[]},{"type":"error","name":"RefinanceCreditMismatch","inputs":[]},{"type":"error","name":"UnsupportedCategory","inputs":[{"name":"categoryValue","type":"uint8","internalType":"uint8"}]},{"type":"error","name":"UnsupportedTransferFunction","inputs":[]},{"type":"error","name":"VaultTransferSameSourceAndDestination","inputs":[{"name":"addr","type":"address","internalType":"address"}]}],"bytecode":{"object":"0x610180604052600361014090815262312e3360e81b610160527f8b73c3c69bb8fe3d512ecc4cf759cc79239f7b179b0ffacaa9a75d522b39400f907f3af43dc47dd092dc79d11f941571a702d1419a15bb1e9b52d0e0e91e22f07352906200006a906101a062000121565b60408051601f1981840301815282825280516020918201209083019490945281019190915260608101919091524660808201523060a082015260c00160408051601f198184030181529190528051602090910120608052348015620000ce57600080fd5b506040516200507838038062005078833981016040819052620000f1916200016f565b60016000556001600160a01b0394851660a05292841660c05290831660e0528216610100521661012052620001df565b6000825160005b8181101562000144576020818601810151858301520162000128565b506000920191825250919050565b80516001600160a01b03811681146200016a57600080fd5b919050565b600080600080600060a086880312156200018857600080fd5b620001938662000152565b9450620001a36020870162000152565b9350620001b36040870162000152565b9250620001c36060870162000152565b9150620001d36080870162000152565b90509295509295909350565b60805160a05160c05160e0516101005161012051614dbd620002bb600039600081816103bd01526113c50152600081816104b50152818161098201528181610cc2015261161a0152600081816104530152818161074901528181611a74015281816126f6015281816127a9015281816128f801528181612aac01526133de01526000818161022d015281816105fe01528181610a990152818161108b015281816112dd015281816124940152818161286e0152612c5501526000818161033101526114ca01526000818161030a01526113ed0152614dbd6000f3fe608060405234801561001057600080fd5b50600436106101fb5760003560e01c8063706048df1161011a5780639788ad55116100ad578063c399e17d1161007c578063c399e17d146104fa578063c81980801461051a578063f23a6e611461052d578063f511231514610540578063ffa1ad741461055357600080fd5b80639788ad55146104b057806397b090ea146104d75780639e8f9540146104df578063bc197c81146104e757600080fd5b806379502c55116100e957806379502c551461044e5780637f24133f1461047557806389d99a051461047f57806394aedc2f1461049d57600080fd5b8063706048df146104025780637122192c1461041557806374baf6ef14610428578063764d77131461043b57600080fd5b80632c8ebec8116101925780633e6df512116101615780633e6df512146103665780634acacdda1461039157806358099d96146103b8578063640d16ed146103df57600080fd5b80632c8ebec8146102fb5780633644e51514610305578063365a86fc1461032c578063376af4d11461035357600080fd5b8063111d8a15116101ce578063111d8a1514610294578063150b7a02146102a95780631742123c146102d55780632c3eae8a146102e857600080fd5b806301ffc9a71461020057806306d37817146102285780630eb6f582146102675780630ee1ba171461027f575b600080fd5b61021361020e36600461405b565b610575565b60405190151581526020015b60405180910390f35b61024f7f000000000000000000000000000000000000000000000000000000000000000081565b6040516001600160a01b03909116815260200161021f565b6102716208052081565b60405190815260200161021f565b61029261028d366004614085565b6105c7565b005b61029c610731565b60405161021f91906140ee565b6102bc6102b7366004614157565b6107c5565b6040516001600160e01b0319909116815260200161021f565b6102926102e33660046141e2565b610803565b6102716102f6366004614085565b610e91565b6102716276a70081565b6102717f000000000000000000000000000000000000000000000000000000000000000081565b61024f7f000000000000000000000000000000000000000000000000000000000000000081565b610292610361366004614237565b610ed2565b610379610374366004614085565b610faf565b60405161021f9c9b9a999897969594939291906142b4565b6102717f9ff198f1043fd251b64c2f21c2278160819a77a1da50cf8284dc53af040fa71781565b61024f7f000000000000000000000000000000000000000000000000000000000000000081565b6102136103ed366004614085565b60026020526000908152604090205460ff1681565b610292610410366004614085565b6111c8565b610213610423366004614392565b6113bd565b610271610436366004614237565b6113e9565b610271610449366004614418565b6114b6565b61024f7f000000000000000000000000000000000000000000000000000000000000000081565b6102716201518081565b61048861025881565b60405163ffffffff909116815260200161021f565b6102926104ab3660046144a8565b611939565b61024f7f000000000000000000000000000000000000000000000000000000000000000081565b610271611b2b565b610271606481565b6102bc6104f5366004614525565b611b47565b61050462f4240081565b60405164ffffffffff909116815260200161021f565b6102716105283660046145e3565b611b62565b6102bc61053b3660046145ff565b611b75565b61027161054e366004614085565b611bb3565b61029c60405180604001604052806003815260200162312e3360e81b81525081565b60006001600160e01b031982166301ffc9a760e01b14806105a657506001600160e01b03198216630a85bd0160e11b145b806105c157506001600160e01b03198216630271189760e51b145b92915050565b6105cf611c48565b6000818152600160205260409081902090516331a9108f60e11b81526004810183905233906001600160a01b037f00000000000000000000000000000000000000000000000000000000000000001690636352211e90602401602060405180830381865afa158015610645573d6000803e3d6000fd5b505050506040513d601f19601f820116820180604052508101906106699190614685565b6001600160a01b03161461069057604051632a0a3d8160e11b815260040160405180910390fd5b805460ff166000036106b5576040516335cee39560e01b815260040160405180910390fd5b805460ff166003036106d2576106cd82336000611ca1565b610723565b805460ff1660021480156106f95750600181015442600160c81b90910464ffffffffff1611155b1561070a576106cd82336001611ca1565b6040516311d01f2b60e31b815260040160405180910390fd5b5061072e6001600055565b50565b604051630233557560e41b81523060048201526060907f00000000000000000000000000000000000000000000000000000000000000006001600160a01b031690632335575090602401600060405180830381865afa158015610798573d6000803e3d6000fd5b505050506040513d6000823e601f3d908101601f191682016040526107c091908101906146a2565b905090565b60006001600160a01b03861630146107f0576040516382a1dea160e01b815260040160405180910390fd5b50630a85bd0160e11b5b95945050505050565b61080b611c48565b823560009081526001602052604081208054909160ff9091169003610843576040516335cee39560e01b815260040160405180910390fd5b805460ff1660030361086857604051631062e18f60e01b815260040160405180910390fd5b6000610873856113e9565b60008181526002602052604090205490915060ff16610921576108dc61089f60c0870160a08801614743565b8286868080601f016020809104026020016040519081016040528093929190818152602001838380828437600092019190915250611d8d92505050565b610921576108f060c0860160a08701614743565b6040516301d2d55760e31b81526001600160a01b039091166004820152602481018290526044015b60405180910390fd5b61093160a0860160808701614775565b64ffffffffff164210610978574261094f60a0870160808801614775565b60405163aa2fd92560e01b8152600481019290925264ffffffffff166024820152604401610918565b6001600160a01b037f00000000000000000000000000000000000000000000000000000000000000001663f291a62c6109b760c0880160a08901614743565b60405160e083811b6001600160e01b03191682526001600160a01b0392909216600482015260c08901356024820152908801356044820152606401602060405180830381865afa158015610a0f573d6000803e3d6000fd5b505050506040513d601f19601f82011682018060405250810190610a33919061479e565b610a8057610a4760c0860160a08701614743565b604051632108c30560e11b81526001600160a01b03909116600482015260c0860135602482015260e08601356044820152606401610918565b6040516331a9108f60e11b8152853560048201526000907f00000000000000000000000000000000000000000000000000000000000000006001600160a01b031690636352211e90602401602060405180830381865afa158015610ae8573d6000803e3d6000fd5b505050506040513d601f19601f82011682018060405250810190610b0c9190614685565b90506001600160a01b0381163303610b985760028301546001600160a01b0316610b3c60c0880160a08901614743565b6001600160a01b031614610b935760028301546001600160a01b0316610b6860c0880160a08901614743565b604051627c5e8760e31b81526001600160a01b03928316600482015291166024820152604401610918565b610bfe565b60028301546001600160a01b03163303610be5576001600160a01b038116610bc660c0880160a08901614743565b6001600160a01b031614610b935780610b6860c0880160a08901614743565b604051639d29f3a960e01b815260040160405180910390fd5b62015180610c126080880160608901614775565b64ffffffffff161015610c5b57610c2f6080870160608801614775565b604051631a16ab3160e11b815264ffffffffff9091166004820152620151806024820152604401610918565b6276a700610c6f6080880160608901614775565b64ffffffffff161115610cb857610c8c6080870160608801614775565b604051631a16ab3160e11b815264ffffffffff90911660048201526276a7006024820152604401610918565b6001600160a01b037f00000000000000000000000000000000000000000000000000000000000000001663f79924a9610cf760c0890160a08a01614743565b60405160e083811b6001600160e01b03191682526001600160a01b0392909216600482015260c08a01356024820152908901356044820152606401600060405180830381600087803b158015610d4c57600080fd5b505af1158015610d60573d6000803e3d6000fd5b505050506001830154600160c81b900464ffffffffff16610d876080880160608901614775565b610d9190826147d1565b60018501805464ffffffffff60c81b1916600160c81b64ffffffffff938416810291909117918290556040805185851681529190920490921660208301528835917f16e70f82a9a68fdbf6cc67068dcfadcaf1e0c61409aa3a24122767789ccc20d5910160405180910390a26000610e0f6040890160208a01614743565b6001600160a01b031614158015610e2a575060008760400135115b15610e7e576000610e5760408901803590610e489060208c01614743565b6001600160a01b031690611f33565b9050610e6281611f6b565b6002850154610e7c9082906001600160a01b031685611fd6565b505b50505050610e8c6001600055565b505050565b6000818152600160205260408120805460ff168203610eb35750600092915050565b610ebc8161204e565b8160050154610ecb91906147f6565b9392505050565b610ee260c0820160a08301614743565b6001600160a01b0316336001600160a01b031614610f3457610f0a60c0820160a08301614743565b604051627c5e8760e31b81526001600160a01b039091166004820152336024820152604401610918565b6000610f3f826113e9565b6000818152600260205260409020805460ff191660011790559050610f6a60c0830160a08401614743565b6001600160a01b0316817f3404b1a797c8c84bf93d13290f9f6e7464634602778a1ffa1fc7d8708668022e84604051610fa39190614809565b60405180910390a35050565b600080600080600080600080610fc3614029565b610fcb614029565b60008b81526001602052604081208190610fe48e612101565b9c508060010160149054906101000a900464ffffffffff169b508060010160199054906101000a900464ffffffffff169a508060020160009054906101000a90046001600160a01b031699508060030160009054906101000a90046001600160a01b031698508060000160009054906101000a900460ff1660ff1660000361106d5760006110f6565b6040516331a9108f60e11b8152600481018f90526001600160a01b037f00000000000000000000000000000000000000000000000000000000000000001690636352211e90602401602060405180830381865afa1580156110d2573d6000803e3d6000fd5b505050506040513d601f19601f820116820180604052508101906110f69190614685565b6003820154600483015460058401548454939b50600160a01b90920462ffffff16995097506111339161010090046001600160a01b031690611f33565b60408051608081019091526006830180549297509091829060ff16600381111561115f5761115f614254565b600381111561117057611170614254565b815281546001600160a01b03610100909104811660208301526001808401546040840152600290930154606090920191909152908301549195501692506111b68e610e91565b91505091939597999b5091939597999b565b6111d0611c48565b600081815260016020819052604090912080549181015490916112069160ff90911690600160c81b900464ffffffffff1661214d565b61120f826121c9565b600061121a83610e91565b82549091506112419061123b9061010090046001600160a01b031683611f33565b33612230565b60408051608081019091526006830180546112bb929190829060ff16600381111561126e5761126e614254565b600381111561127f5761127f614254565b815281546001600160a01b036101009091048116602083015260018301546040830152600292830154606090920191909152908501541661229d565b6040516331a9108f60e11b81526004810184905230906394aedc2f90859084907f00000000000000000000000000000000000000000000000000000000000000006001600160a01b031690636352211e90602401602060405180830381865afa15801561132c573d6000803e3d6000fd5b505050506040513d601f19601f820116820180604052508101906113509190614685565b6040516001600160e01b031960e086901b168152600481019390935260248301919091526001600160a01b03166044820152606401600060405180830381600087803b15801561139f57600080fd5b505af19250505080156113b0575060015b50505061072e6001600055565b60006105c1827f00000000000000000000000000000000000000000000000000000000000000006122fd565b60007f00000000000000000000000000000000000000000000000000000000000000007f9ff198f1043fd251b64c2f21c2278160819a77a1da50cf8284dc53af040fa7178360405160200161143e9190614809565b60408051601f198184030181529082905261145c929160200161489f565b6040516020818303038152906040528051906020012060405160200161149992919061190160f01b81526002810192909252602282015260420190565b604051602081830303815290604052805190602001209050919050565b60006114c0611c48565b6001600160a01b037f00000000000000000000000000000000000000000000000000000000000000001663d019577a6114fc6020890189614743565b6040516001600160e01b031960e084901b1681526001600160a01b0390911660048201527fc0ba7a416221f318a8087fd62f9ff407488b7f5501e79caf9b0666c2df326b9c6024820152604401602060405180830381865afa158015611566573d6000803e3d6000fd5b505050506040513d601f19601f8201168201806040525081019061158a919061479e565b6115e65761159b6020870187614743565b604051630b92eb2560e11b81526001600160a01b0390911660048201527fc0ba7a416221f318a8087fd62f9ff407488b7f5501e79caf9b0666c2df326b9c6024820152604401610918565b6115f660408501602086016148c5565b1561167f5760408051630a69412f60e21b81523360048201529085013560248201527f00000000000000000000000000000000000000000000000000000000000000006001600160a01b0316906329a504bc90604401600060405180830381600087803b15801561166657600080fd5b505af115801561167a573d6000803e3d6000fd5b505050505b8335156116ca578335600090815260016020819052604090912080549181015490916116be9160ff90911690600160c81b900464ffffffffff1661214d565b6116c885356121c9565b505b6000806116da6020890189614743565b6001600160a01b03166301e832723388356116f860208d018d6148e2565b61170560408f018f614928565b8f806060019061171591906148e2565b6040518963ffffffff1660e01b815260040161173898979695949392919061499a565b610200604051808303816000875af1158015611758573d6000803e3d6000fd5b505050506040513d601f19601f8201168201806040525081019061177c9190614ab6565b805191935091506001600160a01b031633148015906117a7575061179f87611b62565b8160e0015114155b156117dc578060e001516117ba88611b62565b604051633188f56d60e11b815260048101929092526024820152604401610918565b61025863ffffffff16816040015163ffffffff16101561182557604080820151905163387a058b60e01b815263ffffffff90911660048201526102586024820152604401610918565b62f4240064ffffffffff168160c0015162ffffff16111561186f5760c0810151604051630fb8adc560e41b815262ffffff909116600482015262f424006024820152604401610918565b8535600003611897576118858160800151611f6b565b6118928160600151611f6b565b6118a2565b6118a2863582612319565b6118ac8188612470565b92506118bb6020890189614743565b6001600160a01b031682847f81757c17b6937fd2ab5739a2842fe6165ef6bee2d0b24179f95fbf761634a68a8960000135858c8b8b604051611901959493929190614b96565b60405180910390a485356000036119215761191c81886126a7565b61192d565b61192d86358289612847565b50506107fa6001600055565b3330146119595760405163edd7338f60e01b815260040160405180910390fd5b6000838152600160205260409020805460ff1660031461198b57604051625bdcbf60e11b815260040160405180910390fd5b60038101546001600160a01b038381169116146119bb5760405163499174ef60e01b815260040160405180910390fd5b600181015481546001600160a01b03918216916000916119e2916101009091041686611f33565b90506119ed86612c3f565b60405160009087907f01c41914692eda9e423c83b28344603636e57a2803060f6778fea9ba50e71b73908390a384600003611a2a57505050505050565b836001600160a01b0316826001600160a01b031603611a5257611a4d818561229d565b611b23565b60405163b209123160e01b81526001600160a01b0383811660048301526000917f00000000000000000000000000000000000000000000000000000000000000009091169063b209123190602401602060405180830381865afa158015611abd573d6000803e3d6000fd5b505050506040513d601f19601f82011682018060405250810190611ae19190614685565b90506001600160a01b038116611b1557604051632f9526c360e11b81526001600160a01b0384166004820152602401610918565b611b2182828588612d35565b505b505050505050565b611b39620805206064614c5a565b611b44906064614c5a565b81565b60006040516382a1dea160e01b815260040160405180910390fd5b6000816040516020016114999190614c79565b60006001600160a01b0387163014611ba0576040516382a1dea160e01b815260040160405180910390fd5b5063f23a6e6160e01b9695505050505050565b6000818152600160205260408120805460ff168203611bd55750600092915050565b611bde83612101565b6001820154600483015460038401546040805160ff9095166020860152600160c81b90930464ffffffffff16928401929092526060830152600160a01b900462ffffff16608082015260a00160405160208183030381529060405280519060200120915050919050565b600260005403611c9a5760405162461bcd60e51b815260206004820152601f60248201527f5265656e7472616e637947756172643a207265656e7472616e742063616c6c006044820152606401610918565b6002600055565b60008381526001602052604081209082611cdc57611cd7611cc186610e91565b835461010090046001600160a01b031690611f33565b611d42565b6040805160808101909152600683018054829060ff166003811115611d0357611d03614254565b6003811115611d1457611d14614254565b8152815461010090046001600160a01b03166020820152600182015460408201526002909101546060909101525b9050611d4d85612c3f565b6040518315159086907f01c41914692eda9e423c83b28344603636e57a2803060f6778fea9ba50e71b7390600090a3611d86818561229d565b5050505050565b60006001600160a01b0384163b15611e8857600080856001600160a01b0316631626ba7e60e01b8686604051602401611dc7929190614c99565b60408051601f198184030181529181526020820180516001600160e01b03166001600160e01b0319909416939093179092529051611e059190614cb2565b600060405180830381855afa9150503d8060008114611e40576040519150601f19603f3d011682016040523d82523d6000602084013e611e45565b606091505b5091509150818015611e58575080516020145b8015611e7f57508051630b135d3f60e11b90611e7d9083016020908101908401614cce565b145b92505050610ecb565b60008060008451604103611eb05750505060208201516040830151606084015160001a611f07565b8451604003611ee957602085015160408601519093506001600160ff1b0381169250611ee160ff82901c601b6147f6565b915050611f07565b845160405163058676ad60e31b815260040161091891815260200190565b611f1386828585612e36565b6001600160a01b0316876001600160a01b03161493505050509392505050565b611f3b614029565b506040805160808101825260008082526001600160a01b0394909416602082015290810192909252606082015290565b611f74816113bd565b61072e5780516003811115611f8b57611f8b614254565b60208201516040808401516060850151915163032163e160e11b815260ff90941660048501526001600160a01b03909216602484015260448301919091526064820152608401610918565b6000611fe28483612e5e565b9050611fef8484846130a8565b611ffd8482848660016130b5565b816001600160a01b0316836001600160a01b03167f0272ef83f5953daad3d7708e6b4442e126f1e049e62a01c1fc53683f3277199c866040516120409190614ce7565b60405180910390a350505050565b6003810154600090600160a01b900462ffffff16810361207057506004015490565b6001820154600090603c9061209390600160a01b900464ffffffffff1642614cf5565b61209d9190614d1e565b600584015460038501549192506000916120e791906120c9908590600160a01b900462ffffff16614c5a565b6120d7620805206064614c5a565b6120e2906064614c5a565b61314f565b90508084600401546120f991906147f6565b949350505050565b6000818152600160205260408120805460ff1660021480156121365750600181015442600160c81b90910464ffffffffff1611155b61214457805460ff16610ecb565b60049392505050565b8160ff16600003612171576040516335cee39560e01b815260040160405180910390fd5b8160ff16600214612195576040516331fe4d5d60e01b815260040160405180910390fd5b428164ffffffffff16116121c557604051631e3cd61560e01b815264ffffffffff82166004820152602401610918565b5050565b6000818152600160205260409020805460ff191660031781556121eb8161204e565b600482015560038101805462ffffff60a01b1916905560405182907ff1e5b832ef53e7d611651983b38ff941f4d2049e9c8962c623c2664bca312bc090600090a25050565b600061223c8330612e5e565b9050612249838330613239565b6122578382308560016130b5565b816001600160a01b03167f019fcaae912e42069954835069f1c8184411022f86cf749694625f2a2313b6ab846040516122909190614ce7565b60405180910390a2505050565b60006122a98383612e5e565b90506122b68330846130a8565b6122c48382843060016130b5565b816001600160a01b03167fc2b8da69776ffa72ca2d7c4a31390d57bd4871cef8066bbe7f1e5bf220a310f1846040516122909190614ce7565b60006123098383613246565b8015610ecb5750610ecb836132f4565b6000828152600160209081526040909120608083015190910151815461010090046001600160a01b03908116911614158061235a5750608082015160600151155b1561237857604051635f860c6160e11b815260040160405180910390fd5b606082015151600381111561238f5761238f614254565b600682015460ff1660038111156123a8576123a8614254565b1415806123d35750606082015160200151600682015461010090046001600160a01b03908116911614155b806123ea5750606082015160400151600782015414155b8061240057506060808301510151600882015414155b1561241e5760405163175bb1b760e21b815260040160405180910390fd5b602082015160028201546001600160a01b03908116911614610e8c576002810154602083015160405163d4b919f760e01b81526001600160a01b03928316600482015291166024820152604401610918565b81516040516335313c2160e11b81526001600160a01b0391821660048201526000917f00000000000000000000000000000000000000000000000000000000000000001690636a627842906024016020604051808303816000875af11580156124dd573d6000803e3d6000fd5b505050506040513d601f19601f820116820180604052508101906125019190614cce565b6000818152600160209081526040909120805460808701518301516001600160a01b0316610100026001600160a81b031990911617600217815591925061254a90840184614743565b60018201805464ffffffffff42908116600160a01b026001600160c81b03199092166001600160a01b03949094169390931717905560408501516125969163ffffffff909116906147d1565b6001808301805464ffffffffff93909316600160c81b0264ffffffffff60c81b199093169290921790915560208501516002830180546001600160a01b039283166001600160a01b031990911617905585516003808501805460c08a015162ffffff16600160a01b026001600160b81b0319909116939094169290921792909217905560a08601516004840155608086015160609081015160058501558601518051600685018054929490939192849260ff199091169190849081111561265f5761265f614254565b0217905550602082015181546001600160a01b0390911661010002610100600160a81b0319909116178155604082015160018201556060909101516002909101555092915050565b6126b982606001518360200151612230565b81516001600160a01b03166126d16020830183614743565b6001600160a01b0316146126ee576126ee826080015183836133d2565b6000806127847f00000000000000000000000000000000000000000000000000000000000000006001600160a01b031663ddca3f436040518163ffffffff1660e01b8152600401602060405180830381865afa158015612752573d6000803e3d6000fd5b505050506040513d601f19601f820116820180604052508101906127769190614d40565b8560800151606001516134e3565b60808601519193509150821561282e578281606001818152505061282e8186600001517f00000000000000000000000000000000000000000000000000000000000000006001600160a01b031663c415b95c6040518163ffffffff1660e01b8152600401602060405180830381865afa158015612805573d6000803e3d6000fd5b505050506040513d601f19601f820116820180604052508101906128299190614685565b611fd6565b6060810182905284516020860151611d86918391611fd6565b60008381526001602052604080822090516331a9108f60e11b8152600481018690529091907f00000000000000000000000000000000000000000000000000000000000000006001600160a01b031690636352211e90602401602060405180830381865afa1580156128bd573d6000803e3d6000fd5b505050506040513d601f19601f820116820180604052508101906128e19190614685565b905060006128ee86610e91565b90506000806129867f00000000000000000000000000000000000000000000000000000000000000006001600160a01b031663ddca3f436040518163ffffffff1660e01b8152600401602060405180830381865afa158015612954573d6000803e3d6000fd5b505050506040513d601f19601f820116820180604052508101906129789190614d40565b8860800151606001516134e3565b9150915060006129968483613524565b905060008483116129a85760006129b2565b6129b28584614cf5565b905060008082116129cc576129c78487614cf5565b6129cf565b60005b90506000876001600160a01b03168b600001516001600160a01b0316141580612a2f575060038901546001600160a01b038981169116148015612a2f5750612a1a60208b018b614743565b60018a01546001600160a01b03908116911614155b60808c01518c51919250906001600160a01b0316612a5060208d018d614743565b6001600160a01b031614612a91578382612a6b576000612a6d565b855b612a7790896147f6565b612a8191906147f6565b6060820152612a91818d8d6133d2565b8615612b085786816060018181525050612b08818d600001517f00000000000000000000000000000000000000000000000000000000000000006001600160a01b031663c415b95c6040518163ffffffff1660e01b8152600401602060405180830381865afa158015612805573d6000803e3d6000fd5b8115612b2257606081018590528b51612b22908290612230565b8315612b4657606081018490528b5160208d0151612b41918391611fd6565b612b63565b8215612b63576060810183905260208c0151612b63908290612230565b306394aedc2f8e8585612b77576000612b79565b885b612b8391906147f6565b6040516001600160e01b031960e085901b168152600481019290925260248201526001600160a01b038c166044820152606401600060405180830381600087803b158015612bd057600080fd5b505af1925050508015612be1575060015b612c305781612c3057606081018590528b516001600160a01b0316612c0960208d018d614743565b6001600160a01b031614612c2257612c22818d8d6133d2565b612c30818d60000151612230565b50505050505050505050505050565b604051630852cd8d60e31b8152600481018290527f00000000000000000000000000000000000000000000000000000000000000006001600160a01b0316906342966c6890602401600060405180830381600087803b158015612ca157600080fd5b505af1158015612cb5573d6000803e3d6000fd5b505050600091825250600160208190526040822080546001600160a81b0319908116825591810180546001600160f01b03191690556002810180546001600160a01b03191690556003810180546001600160b81b031916905560048101839055600581018390556006810180549092169091556007810182905560080155565b6000612d418530612e5e565b9050612d4e853086613239565b6020850151606086015160405163107c8ed760e01b81526001600160a01b0386811660048301528581166024830152928316604482015260648101919091529085169063107c8ed790608401600060405180830381600087803b158015612db457600080fd5b505af1158015612dc8573d6000803e3d6000fd5b50505050612dda8582308660006130b5565b816001600160a01b0316836001600160a01b0316856001600160a01b03167fb58f4e60b4600784c073e07e7bb67825fe64b4592b5c7ce254599a9b8dcc4d8288604051612e279190614ce7565b60405180910390a45050505050565b6000806000612e478787878761353a565b91509150612e54816135fe565b5095945050505050565b60008083516003811115612e7457612e74614254565b03612ef15760208301516040516370a0823160e01b81526001600160a01b038481166004830152909116906370a08231906024015b602060405180830381865afa158015612ec6573d6000803e3d6000fd5b505050506040513d601f19601f82011682018060405250810190612eea9190614cce565b90506105c1565b600183516003811115612f0657612f06614254565b03612fae57816001600160a01b031683602001516001600160a01b0316636352211e85604001516040518263ffffffff1660e01b8152600401612f4b91815260200190565b602060405180830381865afa158015612f68573d6000803e3d6000fd5b505050506040513d601f19601f82011682018060405250810190612f8c9190614685565b6001600160a01b031614612fa1576000612fa4565b60015b60ff1690506105c1565b600283516003811115612fc357612fc3614254565b036130065760208301516040808501519051627eeac760e11b81526001600160a01b038581166004830152602482019290925291169062fdd58e90604401612ea9565b60038351600381111561301b5761301b614254565b0361306057816001600160a01b031683602001516001600160a01b0316636352211e85604001516040518263ffffffff1660e01b8152600401612f4b91815260200190565b60405162461bcd60e51b815260206004820181905260248201527f4d756c7469546f6b656e3a20556e737570706f727465642063617465676f72796044820152606401610918565b610e8c8383836001613748565b816001600160a01b0316836001600160a01b0316036130f25760405163bb77337360e01b81526001600160a01b0384166004820152602401610918565b6000816131115761310286613a01565b61310c9086614cf5565b613124565b61311a86613a01565b61312490866147f6565b90506131308685612e5e565b8114611b23576040516345ffc53d60e11b815260040160405180910390fd5b60008080600019858709858702925082811083820303915050806000036131895783828161317f5761317f614d08565b0492505050610ecb565b8084116131d05760405162461bcd60e51b81526020600482015260156024820152744d6174683a206d756c446976206f766572666c6f7760581b6044820152606401610918565b60008486880960026001871981018816978890046003810283188082028403028082028403028082028403028082028403028082028403029081029092039091026000889003889004909101858311909403939093029303949094049190911702949350505050565b610e8c8383836000613748565b6020820151604051638481ab0760e01b81526001600160a01b039182166004820152600091829190841690638481ab0790602401602060405180830381865afa158015613297573d6000803e3d6000fd5b505050506040513d601f19601f820116820180604052508101906132bb9190614d64565b905060ff808216146132eb57835160ff82169060038111156132df576132df614254565b60ff16149150506105c1565b6120f984613a5c565b6000808251600381111561330a5761330a614254565b036133265760408201511561332157506000919050565b6133ca565b60018251600381111561333b5761333b614254565b036133525760608201511561332157506000919050565b60028251600381111561336757613367614254565b146133ca5760038251600381111561338157613381614254565b036133985760608201511561332157506000919050565b815160038111156133ab576133ab614254565b604051635928f9a360e11b815260ff9091166004820152602401610918565b506001919050565b60006001600160a01b037f00000000000000000000000000000000000000000000000000000000000000001663b20912316134106020850185614743565b6040516001600160e01b031960e084901b1681526001600160a01b039091166004820152602401602060405180830381865afa158015613454573d6000803e3d6000fd5b505050506040513d601f19601f820116820180604052508101906134789190614685565b90506001600160a01b0381166134ba576134956020830183614743565b604051632f9526c360e11b81526001600160a01b039091166004820152602401610918565b6060840151156134dd576134dd84826134d66020860186614743565b8651613bf2565b50505050565b6000808361ffff166000036134fd5750600090508161351d565b61350e838561ffff1661271061314f565b915061351a8284614cf5565b90505b9250929050565b60008183106135335781610ecb565b5090919050565b6000807f7fffffffffffffffffffffffffffffff5d576e7357a4501ddfe92f46681b20a083111561357157506000905060036135f5565b6040805160008082526020820180845289905260ff881692820192909252606081018690526080810185905260019060a0016020604051602081039080840390855afa1580156135c5573d6000803e3d6000fd5b5050604051601f1901519150506001600160a01b0381166135ee576000600192509250506135f5565b9150600090505b94509492505050565b600081600481111561361257613612614254565b0361361a5750565b600181600481111561362e5761362e614254565b0361367b5760405162461bcd60e51b815260206004820152601860248201527f45434453413a20696e76616c6964207369676e617475726500000000000000006044820152606401610918565b600281600481111561368f5761368f614254565b036136dc5760405162461bcd60e51b815260206004820152601f60248201527f45434453413a20696e76616c6964207369676e6174757265206c656e677468006044820152606401610918565b60038160048111156136f0576136f0614254565b0361072e5760405162461bcd60e51b815260206004820152602260248201527f45434453413a20696e76616c6964207369676e6174757265202773272076616c604482015261756560f01b6064820152608401610918565b60008451600381111561375d5761375d614254565b036137c557306001600160a01b0384160361379d5761379882856060015186602001516001600160a01b0316613cd99092919063ffffffff16565b6134dd565b6137988383866060015187602001516001600160a01b0316613d3c909392919063ffffffff16565b6001845160038111156137da576137da614254565b036138b5578061385f57602084015160408086015190516323b872dd60e01b81526001600160a01b038681166004830152858116602483015260448201929092529116906323b872dd906064015b600060405180830381600087803b15801561384257600080fd5b505af1158015613856573d6000803e3d6000fd5b505050506134dd565b60208401516040808601519051635c46a7ef60e11b81526001600160a01b03868116600483015285811660248301526044820192909252608060648201526000608482015291169063b88d4fde9060a401613828565b6002845160038111156138ca576138ca614254565b0361394f5783602001516001600160a01b031663f242432a8484876040015188606001516000146138ff578860600151613902565b60015b6040516001600160e01b031960e087901b1681526001600160a01b0394851660048201529390921660248401526044830152606482015260a06084820152600060a482015260c401613828565b60038451600381111561396457613964614254565b0361306057306001600160a01b038416036139b9576020840151604080860151905163a9059cbb60e01b81526001600160a01b038581166004830152602482019290925291169063a9059cbb90604401613828565b602084015160408086015190516323b872dd60e01b81526001600160a01b038681166004830152858116602483015260448201929092529116906323b872dd90606401613828565b60008082516003811115613a1757613a17614254565b03613a2457506060015190565b600282516003811115613a3957613a39614254565b148015613a4a575060008260600151115b156133ca57506060015190565b919050565b60008082516003811115613a7257613a72614254565b03613b4757613a8d82602001516001600160a01b0316613d74565b15613b33576020820151613ab1906001600160a01b03166336372b0760e01b613d9c565b15613abe57506001919050565b6020820151613add906001600160a01b03166380ac58cd60e01b613d9c565b158015613b0657506020820151613b04906001600160a01b0316636cdb3d1360e11b613d9c565b155b80156105c157506020820151613b2c906001600160a01b0316639a20483d60e01b613d9c565b1592915050565b50602001516001600160a01b03163b151590565b600182516003811115613b5c57613b5c614254565b03613b805760208201516105c1906001600160a01b03166380ac58cd60e01b613e25565b600282516003811115613b9557613b95614254565b03613bb95760208201516105c1906001600160a01b0316636cdb3d1360e11b613e25565b600382516003811115613bce57613bce614254565b036133985760208201516105c1906001600160a01b0316639a20483d60e01b613e25565b6000613bfe8583612e5e565b60208601516060870151604051630b620b8160e01b81526001600160a01b038781166004830152868116602483015292831660448201526064810191909152919250851690630b620b8190608401600060405180830381600087803b158015613c6657600080fd5b505af1158015613c7a573d6000803e3d6000fd5b50505050613c8c8582848660016130b5565b816001600160a01b0316836001600160a01b0316856001600160a01b03167f4c6641e50ab591b51c5b75ab0d3721eb0357eac106223e5d21b1ceb5c2abd30388604051612e279190614ce7565b6040516001600160a01b038316602482015260448101829052610e8c90849063a9059cbb60e01b906064015b60408051601f198184030181529190526020810180516001600160e01b03166001600160e01b031990931692909217909152613e41565b6040516001600160a01b03808516602483015283166044820152606481018290526134dd9085906323b872dd60e01b90608401613d05565b6000613d87826301ffc9a760e01b613d9c565b80156105c15750613b2c826001600160e01b03195b604080516001600160e01b03198316602480830191909152825180830390910181526044909101909152602080820180516001600160e01b03166301ffc9a760e01b178152825160009392849283928392918391908a617530fa92503d91506000519050828015613e0e575060208210155b8015613e1a5750600081115b979650505050505050565b6000613e3083613d74565b8015610ecb5750610ecb8383613d9c565b6000613e96826040518060400160405280602081526020017f5361666545524332303a206c6f772d6c6576656c2063616c6c206661696c6564815250856001600160a01b0316613f169092919063ffffffff16565b9050805160001480613eb7575080806020019051810190613eb7919061479e565b610e8c5760405162461bcd60e51b815260206004820152602a60248201527f5361666545524332303a204552433230206f7065726174696f6e20646964206e6044820152691bdd081cdd58d8d9595960b21b6064820152608401610918565b60606120f9848460008585600080866001600160a01b03168587604051613f3d9190614cb2565b60006040518083038185875af1925050503d8060008114613f7a576040519150601f19603f3d011682016040523d82523d6000602084013e613f7f565b606091505b5091509150613e1a8783838760608315613ffa578251600003613ff3576001600160a01b0385163b613ff35760405162461bcd60e51b815260206004820152601d60248201527f416464726573733a2063616c6c20746f206e6f6e2d636f6e74726163740000006044820152606401610918565b50816120f9565b6120f9838381511561400f5781518083602001fd5b8060405162461bcd60e51b815260040161091891906140ee565b6040805160808101909152806000815260200160006001600160a01b0316815260200160008152602001600081525090565b60006020828403121561406d57600080fd5b81356001600160e01b031981168114610ecb57600080fd5b60006020828403121561409757600080fd5b5035919050565b60005b838110156140b95781810151838201526020016140a1565b50506000910152565b600081518084526140da81602086016020860161409e565b601f01601f19169290920160200192915050565b602081526000610ecb60208301846140c2565b6001600160a01b038116811461072e57600080fd5b60008083601f84011261412857600080fd5b5081356001600160401b0381111561413f57600080fd5b60208301915083602082850101111561351d57600080fd5b60008060008060006080868803121561416f57600080fd5b853561417a81614101565b9450602086013561418a81614101565b93506040860135925060608601356001600160401b038111156141ac57600080fd5b6141b888828901614116565b969995985093965092949392505050565b600061010082840312156141dc57600080fd5b50919050565b600080600061012084860312156141f857600080fd5b61420285856141c9565b92506101008401356001600160401b0381111561421e57600080fd5b61422a86828701614116565b9497909650939450505050565b6000610100828403121561424a57600080fd5b610ecb83836141c9565b634e487b7160e01b600052602160045260246000fd5b80516004811061428a57634e487b7160e01b600052602160045260246000fd5b82526020818101516001600160a01b03169083015260408082015190830152606090810151910152565b60ff8d16815264ffffffffff8c811660208301528b1660408201526001600160a01b038a811660608301528981166080830152881660a082015262ffffff871660c082015260e08101869052610240810161431361010083018761426a565b61432161018083018661426a565b6001600160a01b039390931661020082015261022001529a9950505050505050505050565b634e487b7160e01b600052604160045260246000fd5b60405161012081016001600160401b038111828210171561437f5761437f614346565b60405290565b6004811061072e57600080fd5b6000608082840312156143a457600080fd5b604051608081018181106001600160401b03821117156143c6576143c6614346565b60405282356143d481614385565b815260208301356143e481614101565b6020820152604083810135908201526060928301359281019290925250919050565b6000602082840312156141dc57600080fd5b600080600080600085870360c081121561443157600080fd5b86356001600160401b038082111561444857600080fd5b908801906080828b03121561445c57600080fd5b81975061446c8a60208b01614406565b96506060603f198401121561448057600080fd5b60408901955060a089013592508083111561449a57600080fd5b50506141b888828901614116565b6000806000606084860312156144bd57600080fd5b833592506020840135915060408401356144d681614101565b809150509250925092565b60008083601f8401126144f357600080fd5b5081356001600160401b0381111561450a57600080fd5b6020830191508360208260051b850101111561351d57600080fd5b60008060008060008060008060a0898b03121561454157600080fd5b883561454c81614101565b9750602089013561455c81614101565b965060408901356001600160401b038082111561457857600080fd5b6145848c838d016144e1565b909850965060608b013591508082111561459d57600080fd5b6145a98c838d016144e1565b909650945060808b01359150808211156145c257600080fd5b506145cf8b828c01614116565b999c989b5096995094979396929594505050565b6000602082840312156145f557600080fd5b610ecb8383614406565b60008060008060008060a0878903121561461857600080fd5b863561462381614101565b9550602087013561463381614101565b9450604087013593506060870135925060808701356001600160401b0381111561465c57600080fd5b61466889828a01614116565b979a9699509497509295939492505050565b8051613a5781614101565b60006020828403121561469757600080fd5b8151610ecb81614101565b6000602082840312156146b457600080fd5b81516001600160401b03808211156146cb57600080fd5b818401915084601f8301126146df57600080fd5b8151818111156146f1576146f1614346565b604051601f8201601f19908116603f0116810190838211818310171561471957614719614346565b8160405282815287602084870101111561473257600080fd5b613e1a83602083016020880161409e565b60006020828403121561475557600080fd5b8135610ecb81614101565b803564ffffffffff81168114613a5757600080fd5b60006020828403121561478757600080fd5b610ecb82614760565b801515811461072e57600080fd5b6000602082840312156147b057600080fd5b8151610ecb81614790565b634e487b7160e01b600052601160045260246000fd5b64ffffffffff8181168382160190808211156147ef576147ef6147bb565b5092915050565b808201808211156105c1576105c16147bb565b813581526101008101602083013561482081614101565b6001600160a01b031660208301526040838101359083015261484460608401614760565b64ffffffffff80821660608501528061485f60808701614760565b166080850152505060a083013561487581614101565b6001600160a01b03811660a08401525060c083013560c083015260e083013560e083015292915050565b828152600082516148b781602085016020870161409e565b919091016020019392505050565b6000602082840312156148d757600080fd5b8135610ecb81614790565b6000808335601e198436030181126148f957600080fd5b8301803591506001600160401b0382111561491357600080fd5b60200191503681900382131561351d57600080fd5b6000808335601e1984360301811261493f57600080fd5b8301803591506001600160401b0382111561495957600080fd5b6020019150600581901b360382131561351d57600080fd5b81835281816020850137506000828201602090810191909152601f909101601f19169091010190565b60018060a01b038916815287602082015260a0604082015260006149c260a08301888a614971565b82810360608401528581526001600160fb1b038611156149e157600080fd5b8560051b808860208401370182810360209081016080850152614a079082018587614971565b9b9a5050505050505050505050565b805163ffffffff81168114613a5757600080fd5b600060808284031215614a3c57600080fd5b604051608081018181106001600160401b0382111715614a5e57614a5e614346565b80604052508091508251614a7181614385565b81526020830151614a8181614101565b8060208301525060408301516040820152606083015160608201525092915050565b805162ffffff81168114613a5757600080fd5b600080828403610200811215614acb57600080fd5b835192506101e080601f1983011215614ae357600080fd5b614aeb61435c565b9150614af96020860161467a565b8252614b076040860161467a565b6020830152614b1860608601614a16565b6040830152614b2a8660808701614a2a565b6060830152610100614b3e87828801614a2a565b608084015261018086015160a0840152614b5b6101a08701614aa3565b60c08401526101c086015160e0840152940151938101939093525092909150565b8035614b8781614101565b6001600160a01b031690915250565b85815284516001600160a01b03166020820152600061024060208701516001600160a01b038116604085015250604087015163ffffffff81166060850152506060870151614be7608085018261426a565b506080870151610100614bfc8186018361426a565b60a089015161018086015260c089015162ffffff166101a086015260e08901516101c08601528801516101e085015250614c3a610200840187614b7c565b80610220840152614c4e8184018587614971565b98975050505050505050565b6000816000190483118215151615614c7457614c746147bb565b500290565b602081018235614c8881614101565b6001600160a01b0316909152919050565b8281526040602082015260006120f960408301846140c2565b60008251614cc481846020870161409e565b9190910192915050565b600060208284031215614ce057600080fd5b5051919050565b608081016105c1828461426a565b818103818111156105c1576105c16147bb565b634e487b7160e01b600052601260045260246000fd5b600082614d3b57634e487b7160e01b600052601260045260246000fd5b500490565b600060208284031215614d5257600080fd5b815161ffff81168114610ecb57600080fd5b600060208284031215614d7657600080fd5b815160ff81168114610ecb57600080fdfea2646970667358221220825b2223fc99b9fa96f255726855d28b700266f4ef852c01cd8fe06f1662a89d64736f6c63430008100033","linkReferences":{}},"methodIdentifiers":{"ACCRUING_INTEREST_APR_DECIMALS()":"9e8f9540","ACCRUING_INTEREST_APR_DENOMINATOR()":"97b090ea","DOMAIN_SEPARATOR()":"3644e515","EXTENSION_PROPOSAL_TYPEHASH()":"4acacdda","MAX_ACCRUING_INTEREST_APR()":"c399e17d","MAX_EXTENSION_DURATION()":"2c8ebec8","MINUTES_IN_YEAR()":"0eb6f582","MIN_EXTENSION_DURATION()":"7f24133f","MIN_LOAN_DURATION()":"89d99a05","VERSION()":"ffa1ad74","categoryRegistry()":"58099d96","claimLOAN(uint256)":"0ee1ba17","config()":"79502c55","createLOAN((address,bytes,bytes32[],bytes),(address),(uint256,bool,uint256),bytes)":"764d7713","extendLOAN((uint256,address,uint256,uint40,uint40,address,uint256,uint256),bytes)":"1742123c","extensionProposalsMade(bytes32)":"640d16ed","getExtensionHash((uint256,address,uint256,uint40,uint40,address,uint256,uint256))":"74baf6ef","getLOAN(uint256)":"3e6df512","getLenderSpecHash((address))":"c8198080","getStateFingerprint(uint256)":"f5112315","hub()":"365a86fc","isValidAsset((uint8,address,uint256,uint256))":"7122192c","loanMetadataUri()":"111d8a15","loanRepaymentAmount(uint256)":"2c3eae8a","loanToken()":"06d37817","makeExtensionProposal((uint256,address,uint256,uint40,uint40,address,uint256,uint256))":"376af4d1","onERC1155BatchReceived(address,address,uint256[],uint256[],bytes)":"bc197c81","onERC1155Received(address,address,uint256,uint256,bytes)":"f23a6e61","onERC721Received(address,address,uint256,bytes)":"150b7a02","repayLOAN(uint256)":"706048df","revokedNonce()":"9788ad55","supportsInterface(bytes4)":"01ffc9a7","tryClaimRepaidLOAN(uint256,uint256,address)":"94aedc2f"},"id":93}